{
  "contractName": "NFT",
  "abi": [
    {
      "inputs": [],
      "stateMutability": "nonpayable",
      "type": "constructor"
    },
    {
      "anonymous": false,
      "inputs": [
        {
          "indexed": true,
          "internalType": "address",
          "name": "owner",
          "type": "address"
        },
        {
          "indexed": true,
          "internalType": "address",
          "name": "approved",
          "type": "address"
        },
        {
          "indexed": true,
          "internalType": "uint256",
          "name": "tokenId",
          "type": "uint256"
        }
      ],
      "name": "Approval",
      "type": "event"
    },
    {
      "anonymous": false,
      "inputs": [
        {
          "indexed": true,
          "internalType": "address",
          "name": "owner",
          "type": "address"
        },
        {
          "indexed": true,
          "internalType": "address",
          "name": "operator",
          "type": "address"
        },
        {
          "indexed": false,
          "internalType": "bool",
          "name": "approved",
          "type": "bool"
        }
      ],
      "name": "ApprovalForAll",
      "type": "event"
    },
    {
      "anonymous": false,
      "inputs": [
        {
          "components": [
            {
              "internalType": "uint256",
              "name": "tokenId",
              "type": "uint256"
            },
            {
              "internalType": "address",
              "name": "initialTokenOwner",
              "type": "address"
            },
            {
              "internalType": "address",
              "name": "currentTokenOwner",
              "type": "address"
            },
            {
              "internalType": "string",
              "name": "tokenURI",
              "type": "string"
            }
          ],
          "indexed": false,
          "internalType": "struct NFT.TokenInfo",
          "name": "",
          "type": "tuple"
        }
      ],
      "name": "MintEvent",
      "type": "event"
    },
    {
      "anonymous": false,
      "inputs": [
        {
          "indexed": true,
          "internalType": "address",
          "name": "from",
          "type": "address"
        },
        {
          "indexed": true,
          "internalType": "address",
          "name": "to",
          "type": "address"
        },
        {
          "indexed": true,
          "internalType": "uint256",
          "name": "tokenId",
          "type": "uint256"
        }
      ],
      "name": "Transfer",
      "type": "event"
    },
    {
      "inputs": [
        {
          "internalType": "uint256",
          "name": "",
          "type": "uint256"
        }
      ],
      "name": "_currentTokenOwnerOf",
      "outputs": [
        {
          "internalType": "address",
          "name": "",
          "type": "address"
        }
      ],
      "stateMutability": "view",
      "type": "function",
      "constant": true
    },
    {
      "inputs": [
        {
          "internalType": "uint256",
          "name": "",
          "type": "uint256"
        }
      ],
      "name": "_initialTokenOwnerOf",
      "outputs": [
        {
          "internalType": "address",
          "name": "",
          "type": "address"
        }
      ],
      "stateMutability": "view",
      "type": "function",
      "constant": true
    },
    {
      "inputs": [
        {
          "internalType": "address",
          "name": "",
          "type": "address"
        },
        {
          "internalType": "uint256",
          "name": "",
          "type": "uint256"
        }
      ],
      "name": "_ownedTokens",
      "outputs": [
        {
          "internalType": "uint256",
          "name": "",
          "type": "uint256"
        }
      ],
      "stateMutability": "view",
      "type": "function",
      "constant": true
    },
    {
      "inputs": [
        {
          "internalType": "address",
          "name": "",
          "type": "address"
        }
      ],
      "name": "_ownedTokensCount",
      "outputs": [
        {
          "internalType": "uint256",
          "name": "",
          "type": "uint256"
        }
      ],
      "stateMutability": "view",
      "type": "function",
      "constant": true
    },
    {
      "inputs": [
        {
          "internalType": "uint256",
          "name": "",
          "type": "uint256"
        }
      ],
      "name": "_tokenList",
      "outputs": [
        {
          "internalType": "uint256",
          "name": "tokenId",
          "type": "uint256"
        },
        {
          "internalType": "address",
          "name": "initialTokenOwner",
          "type": "address"
        },
        {
          "internalType": "address",
          "name": "currentTokenOwner",
          "type": "address"
        },
        {
          "internalType": "string",
          "name": "tokenURI",
          "type": "string"
        }
      ],
      "stateMutability": "view",
      "type": "function",
      "constant": true
    },
    {
      "inputs": [
        {
          "internalType": "uint256",
          "name": "",
          "type": "uint256"
        }
      ],
      "name": "_tokenURIOf",
      "outputs": [
        {
          "internalType": "string",
          "name": "",
          "type": "string"
        }
      ],
      "stateMutability": "view",
      "type": "function",
      "constant": true
    },
    {
      "inputs": [
        {
          "internalType": "address",
          "name": "to",
          "type": "address"
        },
        {
          "internalType": "uint256",
          "name": "tokenId",
          "type": "uint256"
        }
      ],
      "name": "approve",
      "outputs": [],
      "stateMutability": "nonpayable",
      "type": "function"
    },
    {
      "inputs": [
        {
          "internalType": "address",
          "name": "_user",
          "type": "address"
        }
      ],
      "name": "authoriseUser",
      "outputs": [],
      "stateMutability": "nonpayable",
      "type": "function"
    },
    {
      "inputs": [
        {
          "internalType": "address",
          "name": "owner",
          "type": "address"
        }
      ],
      "name": "balanceOf",
      "outputs": [
        {
          "internalType": "uint256",
          "name": "",
          "type": "uint256"
        }
      ],
      "stateMutability": "view",
      "type": "function",
      "constant": true
    },
    {
      "inputs": [
        {
          "internalType": "uint256",
          "name": "tokenId",
          "type": "uint256"
        }
      ],
      "name": "getApproved",
      "outputs": [
        {
          "internalType": "address",
          "name": "",
          "type": "address"
        }
      ],
      "stateMutability": "view",
      "type": "function",
      "constant": true
    },
    {
      "inputs": [
        {
          "internalType": "address",
          "name": "owner",
          "type": "address"
        },
        {
          "internalType": "address",
          "name": "operator",
          "type": "address"
        }
      ],
      "name": "isApprovedForAll",
      "outputs": [
        {
          "internalType": "bool",
          "name": "",
          "type": "bool"
        }
      ],
      "stateMutability": "view",
      "type": "function",
      "constant": true
    },
    {
      "inputs": [],
      "name": "name",
      "outputs": [
        {
          "internalType": "string",
          "name": "",
          "type": "string"
        }
      ],
      "stateMutability": "view",
      "type": "function",
      "constant": true
    },
    {
      "inputs": [
        {
          "internalType": "uint256",
          "name": "tokenId",
          "type": "uint256"
        }
      ],
      "name": "ownerOf",
      "outputs": [
        {
          "internalType": "address",
          "name": "",
          "type": "address"
        }
      ],
      "stateMutability": "view",
      "type": "function",
      "constant": true
    },
    {
      "inputs": [
        {
          "internalType": "address",
          "name": "from",
          "type": "address"
        },
        {
          "internalType": "address",
          "name": "to",
          "type": "address"
        },
        {
          "internalType": "uint256",
          "name": "tokenId",
          "type": "uint256"
        }
      ],
      "name": "safeTransferFrom",
      "outputs": [],
      "stateMutability": "nonpayable",
      "type": "function"
    },
    {
      "inputs": [
        {
          "internalType": "address",
          "name": "from",
          "type": "address"
        },
        {
          "internalType": "address",
          "name": "to",
          "type": "address"
        },
        {
          "internalType": "uint256",
          "name": "tokenId",
          "type": "uint256"
        },
        {
          "internalType": "bytes",
          "name": "data",
          "type": "bytes"
        }
      ],
      "name": "safeTransferFrom",
      "outputs": [],
      "stateMutability": "nonpayable",
      "type": "function"
    },
    {
      "inputs": [
        {
          "internalType": "address",
          "name": "operator",
          "type": "address"
        },
        {
          "internalType": "bool",
          "name": "approved",
          "type": "bool"
        }
      ],
      "name": "setApprovalForAll",
      "outputs": [],
      "stateMutability": "nonpayable",
      "type": "function"
    },
    {
      "inputs": [],
      "name": "symbol",
      "outputs": [
        {
          "internalType": "string",
          "name": "",
          "type": "string"
        }
      ],
      "stateMutability": "view",
      "type": "function",
      "constant": true
    },
    {
      "inputs": [
        {
          "internalType": "uint256",
          "name": "index",
          "type": "uint256"
        }
      ],
      "name": "tokenByIndex",
      "outputs": [
        {
          "internalType": "uint256",
          "name": "",
          "type": "uint256"
        }
      ],
      "stateMutability": "view",
      "type": "function",
      "constant": true
    },
    {
      "inputs": [],
      "name": "tokenCount",
      "outputs": [
        {
          "internalType": "uint256",
          "name": "",
          "type": "uint256"
        }
      ],
      "stateMutability": "view",
      "type": "function",
      "constant": true
    },
    {
      "inputs": [
        {
          "internalType": "address",
          "name": "owner",
          "type": "address"
        },
        {
          "internalType": "uint256",
          "name": "index",
          "type": "uint256"
        }
      ],
      "name": "tokenOfOwnerByIndex",
      "outputs": [
        {
          "internalType": "uint256",
          "name": "",
          "type": "uint256"
        }
      ],
      "stateMutability": "view",
      "type": "function",
      "constant": true
    },
    {
      "inputs": [],
      "name": "totalSupply",
      "outputs": [
        {
          "internalType": "uint256",
          "name": "",
          "type": "uint256"
        }
      ],
      "stateMutability": "view",
      "type": "function",
      "constant": true
    },
    {
      "inputs": [
        {
          "internalType": "address",
          "name": "from",
          "type": "address"
        },
        {
          "internalType": "address",
          "name": "to",
          "type": "address"
        },
        {
          "internalType": "uint256",
          "name": "tokenId",
          "type": "uint256"
        }
      ],
      "name": "transferFrom",
      "outputs": [],
      "stateMutability": "nonpayable",
      "type": "function"
    },
    {
      "inputs": [
        {
          "internalType": "uint256",
          "name": "_tokenId",
          "type": "uint256"
        },
        {
          "internalType": "string",
          "name": "_tokenURI",
          "type": "string"
        },
        {
          "internalType": "address",
          "name": "_owner",
          "type": "address"
        }
      ],
      "name": "mint",
      "outputs": [],
      "stateMutability": "nonpayable",
      "type": "function"
    },
    {
      "inputs": [],
      "name": "listTokens",
      "outputs": [
        {
          "components": [
            {
              "internalType": "uint256",
              "name": "tokenId",
              "type": "uint256"
            },
            {
              "internalType": "address",
              "name": "initialTokenOwner",
              "type": "address"
            },
            {
              "internalType": "address",
              "name": "currentTokenOwner",
              "type": "address"
            },
            {
              "internalType": "string",
              "name": "tokenURI",
              "type": "string"
            }
          ],
          "internalType": "struct NFT.TokenInfo[]",
          "name": "",
          "type": "tuple[]"
        }
      ],
      "stateMutability": "view",
      "type": "function",
      "constant": true
    },
    {
      "inputs": [
        {
          "internalType": "address",
          "name": "_address",
          "type": "address"
        }
      ],
      "name": "listTokensOf",
      "outputs": [
        {
          "components": [
            {
              "internalType": "uint256",
              "name": "tokenId",
              "type": "uint256"
            },
            {
              "internalType": "address",
              "name": "initialTokenOwner",
              "type": "address"
            },
            {
              "internalType": "address",
              "name": "currentTokenOwner",
              "type": "address"
            },
            {
              "internalType": "string",
              "name": "tokenURI",
              "type": "string"
            }
          ],
          "internalType": "struct NFT.TokenInfo[]",
          "name": "",
          "type": "tuple[]"
        }
      ],
      "stateMutability": "view",
      "type": "function",
      "constant": true
    },
    {
      "inputs": [
        {
          "internalType": "uint256",
          "name": "tokenId",
          "type": "uint256"
        }
      ],
      "name": "tokenURI",
      "outputs": [
        {
          "internalType": "string",
          "name": "",
          "type": "string"
        }
      ],
      "stateMutability": "view",
      "type": "function",
      "constant": true
    },
    {
      "inputs": [
        {
          "internalType": "bytes4",
          "name": "interfaceId",
          "type": "bytes4"
        }
      ],
      "name": "supportsInterface",
      "outputs": [
        {
          "internalType": "bool",
          "name": "",
          "type": "bool"
        }
      ],
      "stateMutability": "view",
      "type": "function",
      "constant": true
    }
  ],
  "bytecode": "0x60806040523480156200001157600080fd5b506040518060400160405280600a81526020016914185d195b9d0813919560b21b815250604051806040016040528060048152602001631413919560e21b81525081600090816200006391906200014e565b5060016200007282826200014e565b5050600b80546001600160a01b031916339081179091556000908152600c60205260409020805460ff19166001179055506200021a565b634e487b7160e01b600052604160045260246000fd5b600181811c90821680620000d457607f821691505b602082108103620000f557634e487b7160e01b600052602260045260246000fd5b50919050565b601f8211156200014957600081815260208120601f850160051c81016020861015620001245750805b601f850160051c820191505b81811015620001455782815560010162000130565b5050505b505050565b81516001600160401b038111156200016a576200016a620000a9565b62000182816200017b8454620000bf565b84620000fb565b602080601f831160018114620001ba5760008415620001a15750858301515b600019600386901b1c1916600185901b17855562000145565b600085815260208120601f198616915b82811015620001eb57888601518255948401946001909101908401620001ca565b50858210156200020a5787850151600019600388901b60f8161c191681555b5050505050600190811b01905550565b61251f806200022a6000396000f3fe608060405234801561001057600080fd5b50600436106101a95760003560e01c806364da213c116100f9578063a22cb46511610097578063de3bea0d11610071578063de3bea0d146103a6578063e985e9c5146103b9578063f64cac07146103f5578063f66317181461041e57600080fd5b8063a22cb4651461036d578063b88d4fde14610380578063c87b56dd1461039357600080fd5b80637488ff76116100d35780637488ff761461032b5780637572e2221461033357806395d89b411461035c5780639f181b5e1461036457600080fd5b806364da213c146102e5578063663e2091146102f857806370a082311461031857600080fd5b806323b872dd116101665780634eb6b067116101405780634eb6b067146102895780634f3c5f06146102ac5780634f6ccce7146102bf5780636352211e146102d257600080fd5b806323b872dd146102505780632f745c591461026357806342842e0e1461027657600080fd5b806301ffc9a7146101ae57806306fdde03146101d6578063081812fc146101eb578063095ea7b31461021657806318160ddd1461022b5780631ac429b21461023d575b600080fd5b6101c16101bc366004611d0e565b61043e565b60405190151581526020015b60405180910390f35b6101de61044f565b6040516101cd9190611d83565b6101fe6101f9366004611d96565b6104e1565b6040516001600160a01b0390911681526020016101cd565b610229610224366004611dcb565b610508565b005b6009545b6040519081526020016101cd565b61022961024b366004611e81565b610622565b61022961025e366004611eec565b61080e565b61022f610271366004611dcb565b61083f565b610229610284366004611eec565b6108d5565b61029c610297366004611d96565b6108f0565b6040516101cd9493929190611f28565b61022f6102ba366004611dcb565b6109af565b61022f6102cd366004611d96565b6109e0565b6101fe6102e0366004611d96565b610a73565b6101de6102f3366004611d96565b610ad3565b61030b610306366004611f64565b610b6d565b6040516101cd9190611f7f565b61022f610326366004611f64565b610d8e565b61030b610e14565b6101fe610341366004611d96565b6011602052600090815260409020546001600160a01b031681565b6101de610fb5565b61022f600d5481565b61022961037b366004612016565b610fc4565b61022961038e366004612052565b610fd3565b6101de6103a1366004611d96565b61100b565b6102296103b4366004611f64565b611016565b6101c16103c73660046120ce565b6001600160a01b03918216600090815260056020908152604080832093909416825291909152205460ff1690565b6101fe610403366004611d96565b6012602052600090815260409020546001600160a01b031681565b61022f61042c366004611f64565b60106020526000908152604090205481565b60006104498261108d565b92915050565b60606000805461045e90612101565b80601f016020809104026020016040519081016040528092919081815260200182805461048a90612101565b80156104d75780601f106104ac576101008083540402835291602001916104d7565b820191906000526020600020905b8154815290600101906020018083116104ba57829003601f168201915b5050505050905090565b60006104ec826110b2565b506000908152600460205260409020546001600160a01b031690565b600061051382610a73565b9050806001600160a01b0316836001600160a01b0316036105855760405162461bcd60e51b815260206004820152602160248201527f4552433732313a20617070726f76616c20746f2063757272656e74206f776e656044820152603960f91b60648201526084015b60405180910390fd5b336001600160a01b03821614806105a157506105a181336103c7565b6106135760405162461bcd60e51b815260206004820152603e60248201527f4552433732313a20617070726f76652063616c6c6572206973206e6f7420746f60448201527f6b656e206f776e6572206e6f7220617070726f76656420666f7220616c6c0000606482015260840161057c565b61061d8383611114565b505050565b336000908152600c602052604090205460ff166106815760405162461bcd60e51b815260206004820152601760248201527f55736572206973206e6f7420617574686f726973656421000000000000000000604482015260640161057c565b600d80549060006106918361214b565b91905055506106a08184611182565b6106aa838361119c565b604080516080810182528481526001600160a01b0380841660208084018281528486019283526060850188815260008a8152600e909352959091208451815590516001820180549185166001600160a01b03199283161790559151600282018054919094169216919091179091559151909190600382019061072c90826121b2565b5050506001600160a01b03811660009081526010602052604081208054916107538361214b565b90915550506001600160a01b0381166000818152600f602090815260408083208054600181018255908452828420018790558683526011825280832080546001600160a01b0319908116861790915560128352818420805490911690941790935560139052206107c383826121b2565b506000838152600e60205260409081902090517f7bf727bbf7f2032de014e328c9d656a34a5595be23c4f971dc40c4c2c8b90bba9161080191612272565b60405180910390a1505050565b610818338261122f565b6108345760405162461bcd60e51b815260040161057c90612331565b61061d8383836112ae565b600061084a83610d8e565b82106108ac5760405162461bcd60e51b815260206004820152602b60248201527f455243373231456e756d657261626c653a206f776e657220696e646578206f7560448201526a74206f6620626f756e647360a81b606482015260840161057c565b506001600160a01b03919091166000908152600760209081526040808320938352929052205490565b61061d83838360405180602001604052806000815250610fd3565b600e60205260009081526040902080546001820154600283015460038401805493946001600160a01b0393841694939092169261092c90612101565b80601f016020809104026020016040519081016040528092919081815260200182805461095890612101565b80156109a55780601f1061097a576101008083540402835291602001916109a5565b820191906000526020600020905b81548152906001019060200180831161098857829003601f168201915b5050505050905084565b600f60205281600052604060002081815481106109cb57600080fd5b90600052602060002001600091509150505481565b60006109eb60095490565b8210610a4e5760405162461bcd60e51b815260206004820152602c60248201527f455243373231456e756d657261626c653a20676c6f62616c20696e646578206f60448201526b7574206f6620626f756e647360a01b606482015260840161057c565b60098281548110610a6157610a6161237f565b90600052602060002001549050919050565b6000818152600260205260408120546001600160a01b0316806104495760405162461bcd60e51b8152602060048201526018602482015277115490cdcc8c4e881a5b9d985b1a59081d1bdad95b88125160421b604482015260640161057c565b60136020526000908152604090208054610aec90612101565b80601f0160208091040260200160405190810160405280929190818152602001828054610b1890612101565b8015610b655780601f10610b3a57610100808354040283529160200191610b65565b820191906000526020600020905b815481529060010190602001808311610b4857829003601f168201915b505050505081565b6001600160a01b038116600090815260106020908152604080832054600f835281842080548351818602810186019094528084526060959294929392830182828015610bd857602002820191906000526020600020905b815481526020019060010190808311610bc4575b5050505050905060008267ffffffffffffffff811115610bfa57610bfa611df5565b604051908082528060200260200182016040528015610c4b57816020015b6040805160808101825260008082526020808301829052928201526060808201528252600019909201910181610c185790505b50905060005b83811015610d8557600e6000848381518110610c6f57610c6f61237f565b602090810291909101810151825281810192909252604090810160002081516080810183528154815260018201546001600160a01b0390811694820194909452600282015490931691830191909152600381018054606084019190610cd390612101565b80601f0160208091040260200160405190810160405280929190818152602001828054610cff90612101565b8015610d4c5780601f10610d2157610100808354040283529160200191610d4c565b820191906000526020600020905b815481529060010190602001808311610d2f57829003601f168201915b505050505081525050828281518110610d6757610d6761237f565b60200260200101819052508080610d7d9061214b565b915050610c51565b50949350505050565b60006001600160a01b038216610df85760405162461bcd60e51b815260206004820152602960248201527f4552433732313a2061646472657373207a65726f206973206e6f7420612076616044820152683634b21037bbb732b960b91b606482015260840161057c565b506001600160a01b031660009081526003602052604090205490565b60606000600d5467ffffffffffffffff811115610e3357610e33611df5565b604051908082528060200260200182016040528015610e8457816020015b6040805160808101825260008082526020808301829052928201526060808201528252600019909201910181610e515790505b50905060005b600d54811015610faf57600e6000610ea3836001612395565b8152602080820192909252604090810160002081516080810183528154815260018201546001600160a01b0390811694820194909452600282015490931691830191909152600381018054606084019190610efd90612101565b80601f0160208091040260200160405190810160405280929190818152602001828054610f2990612101565b8015610f765780601f10610f4b57610100808354040283529160200191610f76565b820191906000526020600020905b815481529060010190602001808311610f5957829003601f168201915b505050505081525050828281518110610f9157610f9161237f565b60200260200101819052508080610fa79061214b565b915050610e8a565b50919050565b60606001805461045e90612101565b610fcf338383611455565b5050565b610fdd338361122f565b610ff95760405162461bcd60e51b815260040161057c90612331565b61100584848484611523565b50505050565b606061044982611556565b600b546001600160a01b031633146110695760405162461bcd60e51b81526020600482015260166024820152754e6f74206f776e6572206f6620636f6e74726163742160501b604482015260640161057c565b6001600160a01b03166000908152600c60205260409020805460ff19166001179055565b60006001600160e01b0319821663780e9d6360e01b148061044957506104498261165e565b6000818152600260205260409020546001600160a01b03166111115760405162461bcd60e51b8152602060048201526018602482015277115490cdcc8c4e881a5b9d985b1a59081d1bdad95b88125160421b604482015260640161057c565b50565b600081815260046020526040902080546001600160a01b0319166001600160a01b038416908117909155819061114982610a73565b6001600160a01b03167f8c5be1e5ebec7d5bd14f71427d1e84f3dd0314c0f7b2291e5b200ac8c7c3b92560405160405180910390a45050565b610fcf8282604051806020016040528060008152506116ae565b6000828152600260205260409020546001600160a01b03166112175760405162461bcd60e51b815260206004820152602e60248201527f45524337323155524953746f726167653a2055524920736574206f66206e6f6e60448201526d32bc34b9ba32b73a103a37b5b2b760911b606482015260840161057c565b600082815260066020526040902061061d82826121b2565b60008061123b83610a73565b9050806001600160a01b0316846001600160a01b0316148061128257506001600160a01b0380821660009081526005602090815260408083209388168352929052205460ff165b806112a65750836001600160a01b031661129b846104e1565b6001600160a01b0316145b949350505050565b826001600160a01b03166112c182610a73565b6001600160a01b0316146113255760405162461bcd60e51b815260206004820152602560248201527f4552433732313a207472616e736665722066726f6d20696e636f72726563742060448201526437bbb732b960d91b606482015260840161057c565b6001600160a01b0382166113875760405162461bcd60e51b8152602060048201526024808201527f4552433732313a207472616e7366657220746f20746865207a65726f206164646044820152637265737360e01b606482015260840161057c565b6113928383836116e1565b61139d600082611114565b6001600160a01b03831660009081526003602052604081208054600192906113c69084906123ad565b90915550506001600160a01b03821660009081526003602052604081208054600192906113f4908490612395565b909155505060008181526002602052604080822080546001600160a01b0319166001600160a01b0386811691821790925591518493918716917fddf252ad1be2c89b69c2b068fc378daa952ba7f163c4a11628f55a4df523b3ef91a4505050565b816001600160a01b0316836001600160a01b0316036114b65760405162461bcd60e51b815260206004820152601960248201527f4552433732313a20617070726f766520746f2063616c6c657200000000000000604482015260640161057c565b6001600160a01b03838116600081815260056020908152604080832094871680845294825291829020805460ff191686151590811790915591519182527f17307eab39ab6107e8899845ad3d59bd9653f200f220920489ca2b5937696c31910160405180910390a3505050565b61152e8484846112ae565b61153a848484846116ec565b6110055760405162461bcd60e51b815260040161057c906123c4565b6060611561826110b2565b6000828152600660205260408120805461157a90612101565b80601f01602080910402602001604051908101604052809291908181526020018280546115a690612101565b80156115f35780601f106115c8576101008083540402835291602001916115f3565b820191906000526020600020905b8154815290600101906020018083116115d657829003601f168201915b50505050509050600061161160408051602081019091526000815290565b90508051600003611623575092915050565b81511561165557808260405160200161163d929190612416565b60405160208183030381529060405292505050919050565b6112a6846117ed565b60006001600160e01b031982166380ac58cd60e01b148061168f57506001600160e01b03198216635b5e139f60e01b145b8061044957506301ffc9a760e01b6001600160e01b0319831614610449565b6116b88383611861565b6116c560008484846116ec565b61061d5760405162461bcd60e51b815260040161057c906123c4565b61061d8383836119af565b60006001600160a01b0384163b156117e257604051630a85bd0160e11b81526001600160a01b0385169063150b7a0290611730903390899088908890600401612445565b6020604051808303816000875af192505050801561176b575060408051601f3d908101601f1916820190925261176891810190612478565b60015b6117c8573d808015611799576040519150601f19603f3d011682016040523d82523d6000602084013e61179e565b606091505b5080516000036117c05760405162461bcd60e51b815260040161057c906123c4565b805181602001fd5b6001600160e01b031916630a85bd0160e11b1490506112a6565b506001949350505050565b60606117f8826110b2565b600061180f60408051602081019091526000815290565b9050600081511161182f576040518060200160405280600081525061185a565b8061183984611a67565b60405160200161184a929190612416565b6040516020818303038152906040525b9392505050565b6001600160a01b0382166118b75760405162461bcd60e51b815260206004820181905260248201527f4552433732313a206d696e7420746f20746865207a65726f2061646472657373604482015260640161057c565b6000818152600260205260409020546001600160a01b03161561191c5760405162461bcd60e51b815260206004820152601c60248201527f4552433732313a20746f6b656e20616c7265616479206d696e74656400000000604482015260640161057c565b611928600083836116e1565b6001600160a01b0382166000908152600360205260408120805460019290611951908490612395565b909155505060008181526002602052604080822080546001600160a01b0319166001600160a01b03861690811790915590518392907fddf252ad1be2c89b69c2b068fc378daa952ba7f163c4a11628f55a4df523b3ef908290a45050565b6001600160a01b038316611a0a57611a0581600980546000838152600a60205260408120829055600182018355919091527f6e1540171b6c0c960b71a7020d9f60077f6af931a8bbf590da0223dacf75c7af0155565b611a2d565b816001600160a01b0316836001600160a01b031614611a2d57611a2d8382611b68565b6001600160a01b038216611a445761061d81611c05565b826001600160a01b0316826001600160a01b03161461061d5761061d8282611cb4565b606081600003611a8e5750506040805180820190915260018152600360fc1b602082015290565b8160005b8115611ab85780611aa28161214b565b9150611ab19050600a836124ab565b9150611a92565b60008167ffffffffffffffff811115611ad357611ad3611df5565b6040519080825280601f01601f191660200182016040528015611afd576020820181803683370190505b5090505b84156112a657611b126001836123ad565b9150611b1f600a866124bf565b611b2a906030612395565b60f81b818381518110611b3f57611b3f61237f565b60200101906001600160f81b031916908160001a905350611b61600a866124ab565b9450611b01565b60006001611b7584610d8e565b611b7f91906123ad565b600083815260086020526040902054909150808214611bd2576001600160a01b03841660009081526007602090815260408083208584528252808320548484528184208190558352600890915290208190555b5060009182526008602090815260408084208490556001600160a01b039094168352600781528383209183525290812055565b600954600090611c17906001906123ad565b6000838152600a602052604081205460098054939450909284908110611c3f57611c3f61237f565b906000526020600020015490508060098381548110611c6057611c6061237f565b6000918252602080832090910192909255828152600a90915260408082208490558582528120556009805480611c9857611c986124d3565b6001900381819060005260206000200160009055905550505050565b6000611cbf83610d8e565b6001600160a01b039093166000908152600760209081526040808320868452825280832085905593825260089052919091209190915550565b6001600160e01b03198116811461111157600080fd5b600060208284031215611d2057600080fd5b813561185a81611cf8565b60005b83811015611d46578181015183820152602001611d2e565b838111156110055750506000910152565b60008151808452611d6f816020860160208601611d2b565b601f01601f19169290920160200192915050565b60208152600061185a6020830184611d57565b600060208284031215611da857600080fd5b5035919050565b80356001600160a01b0381168114611dc657600080fd5b919050565b60008060408385031215611dde57600080fd5b611de783611daf565b946020939093013593505050565b634e487b7160e01b600052604160045260246000fd5b600067ffffffffffffffff80841115611e2657611e26611df5565b604051601f8501601f19908116603f01168101908282118183101715611e4e57611e4e611df5565b81604052809350858152868686011115611e6757600080fd5b858560208301376000602087830101525050509392505050565b600080600060608486031215611e9657600080fd5b83359250602084013567ffffffffffffffff811115611eb457600080fd5b8401601f81018613611ec557600080fd5b611ed486823560208401611e0b565b925050611ee360408501611daf565b90509250925092565b600080600060608486031215611f0157600080fd5b611f0a84611daf565b9250611f1860208501611daf565b9150604084013590509250925092565b8481526001600160a01b03848116602083015283166040820152608060608201819052600090611f5a90830184611d57565b9695505050505050565b600060208284031215611f7657600080fd5b61185a82611daf565b60006020808301818452808551808352604092508286019150828160051b87010184880160005b8381101561200857888303603f19018552815180518452878101516001600160a01b0390811689860152878201511687850152606090810151608091850182905290611ff481860183611d57565b968901969450505090860190600101611fa6565b509098975050505050505050565b6000806040838503121561202957600080fd5b61203283611daf565b91506020830135801515811461204757600080fd5b809150509250929050565b6000806000806080858703121561206857600080fd5b61207185611daf565b935061207f60208601611daf565b925060408501359150606085013567ffffffffffffffff8111156120a257600080fd5b8501601f810187136120b357600080fd5b6120c287823560208401611e0b565b91505092959194509250565b600080604083850312156120e157600080fd5b6120ea83611daf565b91506120f860208401611daf565b90509250929050565b600181811c9082168061211557607f821691505b602082108103610faf57634e487b7160e01b600052602260045260246000fd5b634e487b7160e01b600052601160045260246000fd5b60006001820161215d5761215d612135565b5060010190565b601f82111561061d57600081815260208120601f850160051c8101602086101561218b5750805b601f850160051c820191505b818110156121aa57828155600101612197565b505050505050565b815167ffffffffffffffff8111156121cc576121cc611df5565b6121e0816121da8454612101565b84612164565b602080601f83116001811461221557600084156121fd5750858301515b600019600386901b1c1916600185901b1785556121aa565b600085815260208120601f198616915b8281101561224457888601518255948401946001909101908401612225565b50858210156122625787850151600019600388901b60f8161c191681555b5050505050600190811b01905550565b60208082528254828201526001808401546001600160a01b0390811660408501526002850154166060840152608080840152600384018054600093929084906122ba81612101565b8060a089015260c0848316600081146122da57600181146122f457612322565b60ff1984168a83015282151560051b8a0182019450612322565b866000528760002060005b8481101561231a5781548c82018501529087019089016122ff565b8b0183019550505b50929998505050505050505050565b6020808252602e908201527f4552433732313a2063616c6c6572206973206e6f7420746f6b656e206f776e6560408201526d1c881b9bdc88185c1c1c9bdd995960921b606082015260800190565b634e487b7160e01b600052603260045260246000fd5b600082198211156123a8576123a8612135565b500190565b6000828210156123bf576123bf612135565b500390565b60208082526032908201527f4552433732313a207472616e7366657220746f206e6f6e20455243373231526560408201527131b2b4bb32b91034b6b83632b6b2b73a32b960711b606082015260800190565b60008351612428818460208801611d2b565b83519083019061243c818360208801611d2b565b01949350505050565b6001600160a01b0385811682528416602082015260408101839052608060608201819052600090611f5a90830184611d57565b60006020828403121561248a57600080fd5b815161185a81611cf8565b634e487b7160e01b600052601260045260246000fd5b6000826124ba576124ba612495565b500490565b6000826124ce576124ce612495565b500690565b634e487b7160e01b600052603160045260246000fdfea26469706673582212208c3169c97cdc807ab8a4647fdeceb64621f1669b9602b9a81b8bd0370797675f64736f6c634300080f0033",
  "immutableReferences": {},
  "source": "// SPDX-License-Identifier: MIT\r\npragma solidity ^0.8.4;\r\n\r\nimport \"@openzeppelin/contracts/token/ERC721/extensions/ERC721URIStorage.sol\";\r\nimport \"@openzeppelin/contracts/token/ERC721/extensions/ERC721Enumerable.sol\";\r\nimport \"./Permissions.sol\";\r\n\r\n\r\ncontract NFT is ERC721URIStorage, ERC721Enumerable, Permissions {\r\n    uint public tokenCount;\r\n    constructor() ERC721(\"Patent NFT\", \"PNFT\") {}\r\n    struct TokenInfo{\r\n        uint tokenId;\r\n        address initialTokenOwner;\r\n        address currentTokenOwner;\r\n        string tokenURI;\r\n    }\r\n\r\n    mapping(uint => TokenInfo) public _tokenList;\r\n    mapping(address => uint[]) public _ownedTokens;\r\n    mapping(address => uint) public _ownedTokensCount;\r\n    mapping(uint => address) public _initialTokenOwnerOf;\r\n    mapping(uint => address) public _currentTokenOwnerOf;\r\n    mapping(uint => string) public _tokenURIOf;\r\n\r\n     event MintEvent(TokenInfo);\r\n\r\n    function mint(uint _tokenId, string memory _tokenURI, address _owner) external onlyAuthorisedPersonnel {\r\n        tokenCount ++;\r\n        _safeMint(_owner, _tokenId);\r\n        _setTokenURI(_tokenId, _tokenURI);\r\n        _tokenList[_tokenId] = TokenInfo(_tokenId, _owner, _owner, _tokenURI);\r\n        _ownedTokensCount[_owner]++;\r\n        _ownedTokens[_owner].push(_tokenId);\r\n        _initialTokenOwnerOf[_tokenId] = _owner;\r\n        _currentTokenOwnerOf[_tokenId] = _owner;\r\n        _tokenURIOf[_tokenId] = _tokenURI;\r\n        emit MintEvent(_tokenList[_tokenId]);\r\n    }\r\n\r\n    function listTokens() external view returns (TokenInfo[] memory ){\r\n        TokenInfo[] memory allTokens = new TokenInfo[](tokenCount);\r\n        for(uint i=0; i<tokenCount; i++){\r\n            allTokens[i] = _tokenList[i+1];\r\n        }\r\n        return allTokens;\r\n    }\r\n\r\n    function listTokensOf(address _address) external view returns(TokenInfo[] memory){\r\n        uint ownedTokensCount = _ownedTokensCount[_address];\r\n        uint[] memory ownedTokens = _ownedTokens[_address];\r\n        TokenInfo[] memory ownTokens = new TokenInfo[](ownedTokensCount);\r\n        for(uint i=0;i<ownedTokensCount;i++){\r\n            ownTokens[i] = _tokenList[ownedTokens[i]];\r\n        } \r\n        return ownTokens;\r\n    }\r\n\r\n    // The following functions are overrides required by Solidity.\r\n\r\n    function _beforeTokenTransfer(address from, address to, uint256 tokenId)\r\n        internal\r\n        override(ERC721, ERC721Enumerable)\r\n    {\r\n        super._beforeTokenTransfer(from, to, tokenId);\r\n    }\r\n\r\n    function _burn(uint256 tokenId) internal override(ERC721, ERC721URIStorage) {\r\n        super._burn(tokenId);\r\n    }\r\n\r\n    function tokenURI(uint256 tokenId)\r\n        public\r\n        view\r\n        override(ERC721, ERC721URIStorage)\r\n        returns (string memory)\r\n    {\r\n        return super.tokenURI(tokenId);\r\n    }\r\n\r\n    function supportsInterface(bytes4 interfaceId)\r\n        public\r\n        view\r\n        override(ERC721, ERC721Enumerable)\r\n        returns (bool)\r\n    {\r\n        return super.supportsInterface(interfaceId);\r\n    }\r\n\r\n}",
  "sourcePath": "D:\\Projects\\Patent_workflow\\patent-workflow-blockchain\\SourceCode\\Ethereum\\contracts\\NFT.sol",
  "compiler": {
    "name": "solc",
    "version": "0.8.15+commit.e14f2714.Emscripten.clang"
  },
  "schemaVersion": "3.4.7",
  "updatedAt": "2022-09-19T05:44:54.188Z",
  "networkType": "ethereum",
  "devdoc": {
    "kind": "dev",
    "methods": {
      "approve(address,uint256)": {
        "details": "See {IERC721-approve}."
      },
      "balanceOf(address)": {
        "details": "See {IERC721-balanceOf}."
      },
      "getApproved(uint256)": {
        "details": "See {IERC721-getApproved}."
      },
      "isApprovedForAll(address,address)": {
        "details": "See {IERC721-isApprovedForAll}."
      },
      "name()": {
        "details": "See {IERC721Metadata-name}."
      },
      "ownerOf(uint256)": {
        "details": "See {IERC721-ownerOf}."
      },
      "safeTransferFrom(address,address,uint256)": {
        "details": "See {IERC721-safeTransferFrom}."
      },
      "safeTransferFrom(address,address,uint256,bytes)": {
        "details": "See {IERC721-safeTransferFrom}."
      },
      "setApprovalForAll(address,bool)": {
        "details": "See {IERC721-setApprovalForAll}."
      },
      "symbol()": {
        "details": "See {IERC721Metadata-symbol}."
      },
      "tokenByIndex(uint256)": {
        "details": "See {IERC721Enumerable-tokenByIndex}."
      },
      "tokenOfOwnerByIndex(address,uint256)": {
        "details": "See {IERC721Enumerable-tokenOfOwnerByIndex}."
      },
      "totalSupply()": {
        "details": "See {IERC721Enumerable-totalSupply}."
      },
      "transferFrom(address,address,uint256)": {
        "details": "See {IERC721-transferFrom}."
      }
    },
    "version": 1
  },
  "userdoc": {
    "kind": "user",
    "methods": {},
    "version": 1
  }
}