{
  "contractName": "NFT",
  "abi": [
    {
      "inputs": [],
      "stateMutability": "nonpayable",
      "type": "constructor"
    },
    {
      "anonymous": false,
      "inputs": [
        {
          "indexed": true,
          "internalType": "address",
          "name": "owner",
          "type": "address"
        },
        {
          "indexed": true,
          "internalType": "address",
          "name": "approved",
          "type": "address"
        },
        {
          "indexed": true,
          "internalType": "uint256",
          "name": "tokenId",
          "type": "uint256"
        }
      ],
      "name": "Approval",
      "type": "event"
    },
    {
      "anonymous": false,
      "inputs": [
        {
          "indexed": true,
          "internalType": "address",
          "name": "owner",
          "type": "address"
        },
        {
          "indexed": true,
          "internalType": "address",
          "name": "operator",
          "type": "address"
        },
        {
          "indexed": false,
          "internalType": "bool",
          "name": "approved",
          "type": "bool"
        }
      ],
      "name": "ApprovalForAll",
      "type": "event"
    },
    {
      "anonymous": false,
      "inputs": [
        {
          "components": [
            {
              "internalType": "uint256",
              "name": "tokenId",
              "type": "uint256"
            },
            {
              "internalType": "address",
              "name": "initialTokenOwner",
              "type": "address"
            },
            {
              "internalType": "address",
              "name": "currentTokenOwner",
              "type": "address"
            },
            {
              "internalType": "string",
              "name": "tokenURI",
              "type": "string"
            }
          ],
          "indexed": false,
          "internalType": "struct NFT.TokenInfo",
          "name": "",
          "type": "tuple"
        }
      ],
      "name": "MintEvent",
      "type": "event"
    },
    {
      "anonymous": false,
      "inputs": [
        {
          "indexed": false,
          "internalType": "uint256",
          "name": "tokenId",
          "type": "uint256"
        },
        {
          "indexed": false,
          "internalType": "uint256",
          "name": "amount",
          "type": "uint256"
        },
        {
          "indexed": false,
          "internalType": "address",
          "name": "user",
          "type": "address"
        }
      ],
      "name": "PatentPaymentEvent",
      "type": "event"
    },
    {
      "anonymous": false,
      "inputs": [
        {
          "indexed": false,
          "internalType": "uint256",
          "name": "tokenId",
          "type": "uint256"
        },
        {
          "indexed": false,
          "internalType": "uint256",
          "name": "amount",
          "type": "uint256"
        },
        {
          "indexed": false,
          "internalType": "address",
          "name": "from",
          "type": "address"
        },
        {
          "indexed": false,
          "internalType": "address",
          "name": "to",
          "type": "address"
        },
        {
          "indexed": false,
          "internalType": "string",
          "name": "transactionType",
          "type": "string"
        },
        {
          "indexed": false,
          "internalType": "uint256",
          "name": "timestamp",
          "type": "uint256"
        }
      ],
      "name": "TransactionLog",
      "type": "event"
    },
    {
      "anonymous": false,
      "inputs": [
        {
          "indexed": true,
          "internalType": "address",
          "name": "from",
          "type": "address"
        },
        {
          "indexed": true,
          "internalType": "address",
          "name": "to",
          "type": "address"
        },
        {
          "indexed": true,
          "internalType": "uint256",
          "name": "tokenId",
          "type": "uint256"
        }
      ],
      "name": "Transfer",
      "type": "event"
    },
    {
      "anonymous": false,
      "inputs": [
        {
          "indexed": false,
          "internalType": "uint256",
          "name": "tokenId",
          "type": "uint256"
        },
        {
          "indexed": false,
          "internalType": "address",
          "name": "from",
          "type": "address"
        },
        {
          "indexed": false,
          "internalType": "address",
          "name": "to",
          "type": "address"
        },
        {
          "indexed": false,
          "internalType": "uint256",
          "name": "price",
          "type": "uint256"
        },
        {
          "indexed": false,
          "internalType": "uint256",
          "name": "commission",
          "type": "uint256"
        }
      ],
      "name": "TransferEvent",
      "type": "event"
    },
    {
      "inputs": [
        {
          "internalType": "uint256",
          "name": "",
          "type": "uint256"
        }
      ],
      "name": "_currentTokenOwnerOf",
      "outputs": [
        {
          "internalType": "address",
          "name": "",
          "type": "address"
        }
      ],
      "stateMutability": "view",
      "type": "function",
      "constant": true
    },
    {
      "inputs": [
        {
          "internalType": "uint256",
          "name": "",
          "type": "uint256"
        }
      ],
      "name": "_feePaymentStatus",
      "outputs": [
        {
          "internalType": "bool",
          "name": "",
          "type": "bool"
        }
      ],
      "stateMutability": "view",
      "type": "function",
      "constant": true
    },
    {
      "inputs": [
        {
          "internalType": "uint256",
          "name": "",
          "type": "uint256"
        }
      ],
      "name": "_initialTokenOwnerOf",
      "outputs": [
        {
          "internalType": "address",
          "name": "",
          "type": "address"
        }
      ],
      "stateMutability": "view",
      "type": "function",
      "constant": true
    },
    {
      "inputs": [
        {
          "internalType": "address",
          "name": "",
          "type": "address"
        },
        {
          "internalType": "uint256",
          "name": "",
          "type": "uint256"
        }
      ],
      "name": "_ownedTokens",
      "outputs": [
        {
          "internalType": "uint256",
          "name": "",
          "type": "uint256"
        }
      ],
      "stateMutability": "view",
      "type": "function",
      "constant": true
    },
    {
      "inputs": [
        {
          "internalType": "address",
          "name": "",
          "type": "address"
        }
      ],
      "name": "_ownedTokensCount",
      "outputs": [
        {
          "internalType": "uint256",
          "name": "",
          "type": "uint256"
        }
      ],
      "stateMutability": "view",
      "type": "function",
      "constant": true
    },
    {
      "inputs": [],
      "name": "_patentFees",
      "outputs": [
        {
          "internalType": "uint256",
          "name": "",
          "type": "uint256"
        }
      ],
      "stateMutability": "view",
      "type": "function",
      "constant": true
    },
    {
      "inputs": [
        {
          "internalType": "uint256",
          "name": "",
          "type": "uint256"
        }
      ],
      "name": "_tokenBuyer",
      "outputs": [
        {
          "internalType": "address",
          "name": "",
          "type": "address"
        }
      ],
      "stateMutability": "view",
      "type": "function",
      "constant": true
    },
    {
      "inputs": [
        {
          "internalType": "uint256",
          "name": "",
          "type": "uint256"
        }
      ],
      "name": "_tokenList",
      "outputs": [
        {
          "internalType": "uint256",
          "name": "tokenId",
          "type": "uint256"
        },
        {
          "internalType": "address",
          "name": "initialTokenOwner",
          "type": "address"
        },
        {
          "internalType": "address",
          "name": "currentTokenOwner",
          "type": "address"
        },
        {
          "internalType": "string",
          "name": "tokenURI",
          "type": "string"
        }
      ],
      "stateMutability": "view",
      "type": "function",
      "constant": true
    },
    {
      "inputs": [
        {
          "internalType": "uint256",
          "name": "",
          "type": "uint256"
        }
      ],
      "name": "_tokenPrice",
      "outputs": [
        {
          "internalType": "uint256",
          "name": "",
          "type": "uint256"
        }
      ],
      "stateMutability": "view",
      "type": "function",
      "constant": true
    },
    {
      "inputs": [
        {
          "internalType": "uint256",
          "name": "",
          "type": "uint256"
        }
      ],
      "name": "_tokenURIOf",
      "outputs": [
        {
          "internalType": "string",
          "name": "",
          "type": "string"
        }
      ],
      "stateMutability": "view",
      "type": "function",
      "constant": true
    },
    {
      "inputs": [],
      "name": "_transferCommissionPercentage",
      "outputs": [
        {
          "internalType": "uint256",
          "name": "",
          "type": "uint256"
        }
      ],
      "stateMutability": "view",
      "type": "function",
      "constant": true
    },
    {
      "inputs": [
        {
          "internalType": "uint256",
          "name": "",
          "type": "uint256"
        }
      ],
      "name": "_transferCount",
      "outputs": [
        {
          "internalType": "uint256",
          "name": "",
          "type": "uint256"
        }
      ],
      "stateMutability": "view",
      "type": "function",
      "constant": true
    },
    {
      "inputs": [
        {
          "internalType": "address",
          "name": "to",
          "type": "address"
        },
        {
          "internalType": "uint256",
          "name": "tokenId",
          "type": "uint256"
        }
      ],
      "name": "approve",
      "outputs": [],
      "stateMutability": "nonpayable",
      "type": "function"
    },
    {
      "inputs": [
        {
          "internalType": "address",
          "name": "owner",
          "type": "address"
        }
      ],
      "name": "balanceOf",
      "outputs": [
        {
          "internalType": "uint256",
          "name": "",
          "type": "uint256"
        }
      ],
      "stateMutability": "view",
      "type": "function",
      "constant": true
    },
    {
      "inputs": [
        {
          "internalType": "uint256",
          "name": "tokenId",
          "type": "uint256"
        }
      ],
      "name": "getApproved",
      "outputs": [
        {
          "internalType": "address",
          "name": "",
          "type": "address"
        }
      ],
      "stateMutability": "view",
      "type": "function",
      "constant": true
    },
    {
      "inputs": [
        {
          "internalType": "address",
          "name": "owner",
          "type": "address"
        },
        {
          "internalType": "address",
          "name": "operator",
          "type": "address"
        }
      ],
      "name": "isApprovedForAll",
      "outputs": [
        {
          "internalType": "bool",
          "name": "",
          "type": "bool"
        }
      ],
      "stateMutability": "view",
      "type": "function",
      "constant": true
    },
    {
      "inputs": [],
      "name": "name",
      "outputs": [
        {
          "internalType": "string",
          "name": "",
          "type": "string"
        }
      ],
      "stateMutability": "view",
      "type": "function",
      "constant": true
    },
    {
      "inputs": [
        {
          "internalType": "uint256",
          "name": "tokenId",
          "type": "uint256"
        }
      ],
      "name": "ownerOf",
      "outputs": [
        {
          "internalType": "address",
          "name": "",
          "type": "address"
        }
      ],
      "stateMutability": "view",
      "type": "function",
      "constant": true
    },
    {
      "inputs": [
        {
          "internalType": "address",
          "name": "from",
          "type": "address"
        },
        {
          "internalType": "address",
          "name": "to",
          "type": "address"
        },
        {
          "internalType": "uint256",
          "name": "tokenId",
          "type": "uint256"
        }
      ],
      "name": "safeTransferFrom",
      "outputs": [],
      "stateMutability": "nonpayable",
      "type": "function"
    },
    {
      "inputs": [
        {
          "internalType": "address",
          "name": "from",
          "type": "address"
        },
        {
          "internalType": "address",
          "name": "to",
          "type": "address"
        },
        {
          "internalType": "uint256",
          "name": "tokenId",
          "type": "uint256"
        },
        {
          "internalType": "bytes",
          "name": "data",
          "type": "bytes"
        }
      ],
      "name": "safeTransferFrom",
      "outputs": [],
      "stateMutability": "nonpayable",
      "type": "function"
    },
    {
      "inputs": [
        {
          "internalType": "address",
          "name": "operator",
          "type": "address"
        },
        {
          "internalType": "bool",
          "name": "approved",
          "type": "bool"
        }
      ],
      "name": "setApprovalForAll",
      "outputs": [],
      "stateMutability": "nonpayable",
      "type": "function"
    },
    {
      "inputs": [
        {
          "internalType": "address",
          "name": "authorityAddress",
          "type": "address"
        }
      ],
      "name": "setAuthority",
      "outputs": [],
      "stateMutability": "nonpayable",
      "type": "function"
    },
    {
      "inputs": [],
      "name": "symbol",
      "outputs": [
        {
          "internalType": "string",
          "name": "",
          "type": "string"
        }
      ],
      "stateMutability": "view",
      "type": "function",
      "constant": true
    },
    {
      "inputs": [
        {
          "internalType": "uint256",
          "name": "index",
          "type": "uint256"
        }
      ],
      "name": "tokenByIndex",
      "outputs": [
        {
          "internalType": "uint256",
          "name": "",
          "type": "uint256"
        }
      ],
      "stateMutability": "view",
      "type": "function",
      "constant": true
    },
    {
      "inputs": [],
      "name": "tokenCount",
      "outputs": [
        {
          "internalType": "uint256",
          "name": "",
          "type": "uint256"
        }
      ],
      "stateMutability": "view",
      "type": "function",
      "constant": true
    },
    {
      "inputs": [
        {
          "internalType": "address",
          "name": "owner",
          "type": "address"
        },
        {
          "internalType": "uint256",
          "name": "index",
          "type": "uint256"
        }
      ],
      "name": "tokenOfOwnerByIndex",
      "outputs": [
        {
          "internalType": "uint256",
          "name": "",
          "type": "uint256"
        }
      ],
      "stateMutability": "view",
      "type": "function",
      "constant": true
    },
    {
      "inputs": [],
      "name": "totalSupply",
      "outputs": [
        {
          "internalType": "uint256",
          "name": "",
          "type": "uint256"
        }
      ],
      "stateMutability": "view",
      "type": "function",
      "constant": true
    },
    {
      "inputs": [
        {
          "internalType": "address",
          "name": "from",
          "type": "address"
        },
        {
          "internalType": "address",
          "name": "to",
          "type": "address"
        },
        {
          "internalType": "uint256",
          "name": "tokenId",
          "type": "uint256"
        }
      ],
      "name": "transferFrom",
      "outputs": [],
      "stateMutability": "nonpayable",
      "type": "function"
    },
    {
      "inputs": [
        {
          "internalType": "uint256",
          "name": "_tokenId",
          "type": "uint256"
        },
        {
          "internalType": "string",
          "name": "_tokenURI",
          "type": "string"
        },
        {
          "internalType": "address",
          "name": "_owner",
          "type": "address"
        }
      ],
      "name": "mint",
      "outputs": [],
      "stateMutability": "nonpayable",
      "type": "function"
    },
    {
      "inputs": [],
      "name": "listTokens",
      "outputs": [
        {
          "components": [
            {
              "internalType": "uint256",
              "name": "tokenId",
              "type": "uint256"
            },
            {
              "internalType": "address",
              "name": "initialTokenOwner",
              "type": "address"
            },
            {
              "internalType": "address",
              "name": "currentTokenOwner",
              "type": "address"
            },
            {
              "internalType": "string",
              "name": "tokenURI",
              "type": "string"
            }
          ],
          "internalType": "struct NFT.TokenInfo[]",
          "name": "",
          "type": "tuple[]"
        }
      ],
      "stateMutability": "view",
      "type": "function",
      "constant": true
    },
    {
      "inputs": [
        {
          "internalType": "address",
          "name": "_address",
          "type": "address"
        }
      ],
      "name": "listTokensOf",
      "outputs": [
        {
          "components": [
            {
              "internalType": "uint256",
              "name": "tokenId",
              "type": "uint256"
            },
            {
              "internalType": "address",
              "name": "initialTokenOwner",
              "type": "address"
            },
            {
              "internalType": "address",
              "name": "currentTokenOwner",
              "type": "address"
            },
            {
              "internalType": "string",
              "name": "tokenURI",
              "type": "string"
            }
          ],
          "internalType": "struct NFT.TokenInfo[]",
          "name": "",
          "type": "tuple[]"
        }
      ],
      "stateMutability": "view",
      "type": "function",
      "constant": true
    },
    {
      "inputs": [
        {
          "internalType": "uint256",
          "name": "_tokenId",
          "type": "uint256"
        }
      ],
      "name": "burn",
      "outputs": [],
      "stateMutability": "nonpayable",
      "type": "function"
    },
    {
      "inputs": [
        {
          "internalType": "uint256",
          "name": "tokenId",
          "type": "uint256"
        }
      ],
      "name": "tokenURI",
      "outputs": [
        {
          "internalType": "string",
          "name": "",
          "type": "string"
        }
      ],
      "stateMutability": "view",
      "type": "function",
      "constant": true
    },
    {
      "inputs": [
        {
          "internalType": "bytes4",
          "name": "interfaceId",
          "type": "bytes4"
        }
      ],
      "name": "supportsInterface",
      "outputs": [
        {
          "internalType": "bool",
          "name": "",
          "type": "bool"
        }
      ],
      "stateMutability": "view",
      "type": "function",
      "constant": true
    },
    {
      "inputs": [
        {
          "internalType": "uint256",
          "name": "value",
          "type": "uint256"
        }
      ],
      "name": "setTransferCommission",
      "outputs": [],
      "stateMutability": "nonpayable",
      "type": "function"
    },
    {
      "inputs": [
        {
          "internalType": "uint256",
          "name": "_amount",
          "type": "uint256"
        }
      ],
      "name": "setPatentFees",
      "outputs": [],
      "stateMutability": "nonpayable",
      "type": "function"
    },
    {
      "inputs": [
        {
          "internalType": "uint256",
          "name": "_tokenId",
          "type": "uint256"
        }
      ],
      "name": "payPatentFees",
      "outputs": [],
      "stateMutability": "payable",
      "type": "function",
      "payable": true
    },
    {
      "inputs": [
        {
          "internalType": "uint256",
          "name": "_tokenId",
          "type": "uint256"
        }
      ],
      "name": "giveApprovalToContract",
      "outputs": [],
      "stateMutability": "nonpayable",
      "type": "function"
    },
    {
      "inputs": [
        {
          "internalType": "uint256",
          "name": "_tokenId",
          "type": "uint256"
        },
        {
          "internalType": "address",
          "name": "_buyer",
          "type": "address"
        },
        {
          "internalType": "uint256",
          "name": "_price",
          "type": "uint256"
        }
      ],
      "name": "setTokenBuyer",
      "outputs": [],
      "stateMutability": "nonpayable",
      "type": "function"
    },
    {
      "inputs": [
        {
          "internalType": "uint256",
          "name": "_tokenId",
          "type": "uint256"
        }
      ],
      "name": "buyNft",
      "outputs": [],
      "stateMutability": "payable",
      "type": "function",
      "payable": true
    },
    {
      "inputs": [],
      "name": "clearContractBalance",
      "outputs": [],
      "stateMutability": "nonpayable",
      "type": "function"
    }
  ],
  "bytecode": "0x608060405260056010553480156200001657600080fd5b506040518060400160405280600a81526020016914185d195b9d0813919560b21b815250604051806040016040528060048152602001631413919560e21b81525081600090816200006891906200017b565b5060016200007782826200017b565b5050600b8054336001600160a01b0319918216811783556000908152600d60205260409020805460ff191660011790559054600c80546001600160a01b039092169190921617905550661057acf5f78000600f55600560105562000247565b634e487b7160e01b600052604160045260246000fd5b600181811c908216806200010157607f821691505b6020821081036200012257634e487b7160e01b600052602260045260246000fd5b50919050565b601f8211156200017657600081815260208120601f850160051c81016020861015620001515750805b601f850160051c820191505b8181101562000172578281556001016200015d565b5050505b505050565b81516001600160401b03811115620001975762000197620000d6565b620001af81620001a88454620000ec565b8462000128565b602080601f831160018114620001e75760008415620001ce5750858301515b600019600386901b1c1916600185901b17855562000172565b600085815260208120601f198616915b828110156200021857888601518255948401946001909101908401620001f7565b5085821015620002375787850151600019600388901b60f8161c191681555b5050505050600190811b01905550565b6131d580620002576000396000f3fe6080604052600436106102465760003560e01c8063663e20911161013957806395d89b41116100b6578063c87b56dd1161007a578063c87b56dd14610709578063c96ad4d914610729578063dacd84031461073f578063e985e9c514610755578063f64cac071461079e578063f6631718146107d457600080fd5b806395d89b41146106895780639f181b5e1461069e578063a22cb465146106b4578063b88d4fde146106d4578063bcd3ad05146106f457600080fd5b80637572e222116100fd5780637572e222146105a05780637a9e5e4b146105d65780637dc2ecd4146105f657806386cb1c081461062357806392d0b1621461065357600080fd5b8063663e2091146104f15780636866d1441461051e57806370a082311461054b57806370f6fe271461056b5780637488ff761461058b57600080fd5b80632f745c59116101c75780634eb6b0671161018b5780634eb6b067146104415780634f3c5f06146104715780634f6ccce7146104915780636352211e146104b157806364da213c146104d157600080fd5b80632f745c59146103ae57806342842e0e146103ce57806342966c68146103ee578063460f0b1e1461040e5780634af249c51461042e57600080fd5b806318160ddd1161020e57806318160ddd1461031c5780631ac429b21461033b57806323b872dd1461035b578063243adbdd1461037b57806329424dee1461038e57600080fd5b806301ffc9a71461024b57806306fdde0314610280578063081812fc146102a2578063095ea7b3146102da5780630c10ec2f146102fc575b600080fd5b34801561025757600080fd5b5061026b610266366004612969565b610801565b60405190151581526020015b60405180910390f35b34801561028c57600080fd5b50610295610812565b60405161027791906129d6565b3480156102ae57600080fd5b506102c26102bd3660046129e9565b6108a4565b6040516001600160a01b039091168152602001610277565b3480156102e657600080fd5b506102fa6102f5366004612a1e565b6108cb565b005b34801561030857600080fd5b506102fa6103173660046129e9565b6109e5565b34801561032857600080fd5b506009545b604051908152602001610277565b34801561034757600080fd5b506102fa610356366004612ad4565b6109f2565b34801561036757600080fd5b506102fa610376366004612b3f565b610c3b565b6102fa6103893660046129e9565b610c6c565b34801561039a57600080fd5b506102fa6103a93660046129e9565b611011565b3480156103ba57600080fd5b5061032d6103c9366004612a1e565b611040565b3480156103da57600080fd5b506102fa6103e9366004612b3f565b6110d6565b3480156103fa57600080fd5b506102fa6104093660046129e9565b6110f1565b34801561041a57600080fd5b506102fa6104293660046129e9565b611143565b6102fa61043c3660046129e9565b611172565b34801561044d57600080fd5b5061046161045c3660046129e9565b61134c565b6040516102779493929190612b7b565b34801561047d57600080fd5b5061032d61048c366004612a1e565b61140b565b34801561049d57600080fd5b5061032d6104ac3660046129e9565b61143c565b3480156104bd57600080fd5b506102c26104cc3660046129e9565b6114cf565b3480156104dd57600080fd5b506102956104ec3660046129e9565b61152f565b3480156104fd57600080fd5b5061051161050c366004612bb7565b6115c9565b6040516102779190612bd2565b34801561052a57600080fd5b5061032d6105393660046129e9565b60196020526000908152604090205481565b34801561055757600080fd5b5061032d610566366004612bb7565b6117ea565b34801561057757600080fd5b506102fa610586366004612c69565b611870565b34801561059757600080fd5b506105116118d3565b3480156105ac57600080fd5b506102c26105bb3660046129e9565b6014602052600090815260409020546001600160a01b031681565b3480156105e257600080fd5b506102fa6105f1366004612bb7565b611a74565b34801561060257600080fd5b5061032d6106113660046129e9565b601a6020526000908152604090205481565b34801561062f57600080fd5b5061026b61063e3660046129e9565b60176020526000908152604090205460ff1681565b34801561065f57600080fd5b506102c261066e3660046129e9565b6018602052600090815260409020546001600160a01b031681565b34801561069557600080fd5b50610295611ae9565b3480156106aa57600080fd5b5061032d600e5481565b3480156106c057600080fd5b506102fa6106cf366004612c8e565b611af8565b3480156106e057600080fd5b506102fa6106ef366004612cca565b611b07565b34801561070057600080fd5b506102fa611b3f565b34801561071557600080fd5b506102956107243660046129e9565b611ba2565b34801561073557600080fd5b5061032d600f5481565b34801561074b57600080fd5b5061032d60105481565b34801561076157600080fd5b5061026b610770366004612d46565b6001600160a01b03918216600090815260056020908152604080832093909416825291909152205460ff1690565b3480156107aa57600080fd5b506102c26107b93660046129e9565b6015602052600090815260409020546001600160a01b031681565b3480156107e057600080fd5b5061032d6107ef366004612bb7565b60136020526000908152604090205481565b600061080c82611bad565b92915050565b60606000805461082190612d79565b80601f016020809104026020016040519081016040528092919081815260200182805461084d90612d79565b801561089a5780601f1061086f5761010080835404028352916020019161089a565b820191906000526020600020905b81548152906001019060200180831161087d57829003601f168201915b5050505050905090565b60006108af82611bd2565b506000908152600460205260409020546001600160a01b031690565b60006108d6826114cf565b9050806001600160a01b0316836001600160a01b0316036109485760405162461bcd60e51b815260206004820152602160248201527f4552433732313a20617070726f76616c20746f2063757272656e74206f776e656044820152603960f91b60648201526084015b60405180910390fd5b336001600160a01b038216148061096457506109648133610770565b6109d65760405162461bcd60e51b815260206004820152603e60248201527f4552433732313a20617070726f76652063616c6c6572206973206e6f7420746f60448201527f6b656e206f776e6572206e6f7220617070726f76656420666f7220616c6c0000606482015260840161093f565b6109e08383611c31565b505050565b6109ef30826108cb565b50565b600c546001600160a01b03163314610a1c5760405162461bcd60e51b815260040161093f90612dad565b6000838152601760205260409020805460ff19166001179055600e8054906000610a4583612df3565b9190505550610a548184611c9f565b610a5e8383611cb9565b604080516080810182528481526001600160a01b0380841660208084018281528486019283526060850188815260008a81526011909352959091208451815590516001820180549185166001600160a01b031992831617905591516002820180549190941692169190911790915591519091906003820190610ae09082612e5a565b5050506001600160a01b0381166000908152601360205260408120805491610b0783612df3565b90915550506001600160a01b03811660008181526012602090815260408083208054600181018255908452828420018790558683526014825280832080546001600160a01b031990811686179091556015835281842080549091169094179093556016905220610b778382612e5a565b506000838152601160205260409081902090517f7bf727bbf7f2032de014e328c9d656a34a5595be23c4f971dc40c4c2c8b90bba91610bb591612f1a565b60405180910390a160408051848152600060208201819052818301526001600160a01b038316606082015260c060808201819052600b908201526a1391950810dc99585d195960aa1b60e08201524260a082015290517f1525f265f3e8fb1e1353e015071b131fd7e63b40fa84a94978a4fa5b1096b334918190036101000190a1505050565b610c453382611d4c565b610c615760405162461bcd60e51b815260040161093f90612fd9565b6109e0838383611dcb565b6000818152601860205260409020546001600160a01b03163314610cde5760405162461bcd60e51b8152602060048201526024808201527f5472616e73666572206e6f7420617574686f7269656420627920417574686f7260448201526334ba3c9760e11b606482015260840161093f565b6000818152601960205260409020543414610d475760405162461bcd60e51b815260206004820152602360248201527f546f6b656e207072696365206e6f7420657175616c20746f207365742070726960448201526231b29760e91b606482015260840161093f565b6000818152601160205260409020600201546001600160a01b031633819003610db25760405162461bcd60e51b815260206004820152601b60248201527f596f7520616c7265616479206f776e207468697320746f6b656e2e0000000000604482015260640161093f565b60105434908290600090606490610dc99085613027565b610dd39190613054565b90506000610de18285613068565b600c5460405191925033916001600160a01b039091169084156108fc029085906000818181858888f19350505050158015610e20573d6000803e3d6000fd5b506040516001600160a01b0385169083156108fc029084906000818181858888f19350505050158015610e57573d6000803e3d6000fd5b50604051632142170760e11b81526001600160a01b038088166004830152821660248201526044810188905230906342842e0e90606401600060405180830381600087803b158015610ea857600080fd5b505af1158015610ebc573d6000803e3d6000fd5b5050506000888152601a602052604081208054925090610edb83612df3565b9091555050600087815260116020908152604080832060020180546001600160a01b038681166001600160a01b03199283168117909355601585528386208054831684179055601885528386208054909216909155601984528285209490945581518b8152938a169284019290925282015260608101869052608081018490527ffd0eb5e33de7ef073d6640a3a0679ef5f2e61433fbf7a16e605e6eb1f0b4da1a9060a00160405180910390a1604080518881523460208201526001600160a01b03888116828401528316606082015260c0608082018190526012908201527114185d195b9d08151c985b9cd9995c9c995960721b60e08201524260a082015290517f1525f265f3e8fb1e1353e015071b131fd7e63b40fa84a94978a4fa5b1096b334918190036101000190a150505050505050565b600c546001600160a01b0316331461103b5760405162461bcd60e51b815260040161093f90612dad565b601055565b600061104b836117ea565b82106110ad5760405162461bcd60e51b815260206004820152602b60248201527f455243373231456e756d657261626c653a206f776e657220696e646578206f7560448201526a74206f6620626f756e647360a81b606482015260840161093f565b506001600160a01b03919091166000908152600760209081526040808320938352929052205490565b6109e083838360405180602001604052806000815250611b07565b600c546001600160a01b0316331461111b5760405162461bcd60e51b815260040161093f90612dad565b600081815260116020526040902060020180546001600160a01b03191690556109ef81611f72565b600c546001600160a01b0316331461116d5760405162461bcd60e51b815260040161093f90612dad565b600f55565b60008181526017602052604090205460ff16156111e45760405162461bcd60e51b815260206004820152602a60248201527f4665657320666f72207468697320706174656e742068617320616c7265616479604482015269081899595b881c185a5960b21b606482015260840161093f565b34600f54146112355760405162461bcd60e51b815260206004820152601f60248201527f416d6f756e74206e6f7420657175616c20746f20706174656e74206665657300604482015260640161093f565b600081815260176020526040808220805460ff19166001179055600c5490516001600160a01b03909116913480156108fc02929091818181858888f19350505050158015611287573d6000803e3d6000fd5b50600f546040805183815260208101929092523382820152517fd5fbd7c0c0c3a44b9e6c2fbf58ee544fb0d863de075f1ffe22004303c14210499181900360600190a1600c546040805183815234602082015233818301526001600160a01b03909216606083015260c0608083018190526010908301526f14185d195b9d081199595cc814185a5960821b60e08301524260a0830152517f1525f265f3e8fb1e1353e015071b131fd7e63b40fa84a94978a4fa5b1096b334918190036101000190a150565b601160205260009081526040902080546001820154600283015460038401805493946001600160a01b0393841694939092169261138890612d79565b80601f01602080910402602001604051908101604052809291908181526020018280546113b490612d79565b80156114015780601f106113d657610100808354040283529160200191611401565b820191906000526020600020905b8154815290600101906020018083116113e457829003601f168201915b5050505050905084565b6012602052816000526040600020818154811061142757600080fd5b90600052602060002001600091509150505481565b600061144760095490565b82106114aa5760405162461bcd60e51b815260206004820152602c60248201527f455243373231456e756d657261626c653a20676c6f62616c20696e646578206f60448201526b7574206f6620626f756e647360a01b606482015260840161093f565b600982815481106114bd576114bd61307b565b90600052602060002001549050919050565b6000818152600260205260408120546001600160a01b03168061080c5760405162461bcd60e51b8152602060048201526018602482015277115490cdcc8c4e881a5b9d985b1a59081d1bdad95b88125160421b604482015260640161093f565b6016602052600090815260409020805461154890612d79565b80601f016020809104026020016040519081016040528092919081815260200182805461157490612d79565b80156115c15780601f10611596576101008083540402835291602001916115c1565b820191906000526020600020905b8154815290600101906020018083116115a457829003601f168201915b505050505081565b6001600160a01b038116600090815260136020908152604080832054601283528184208054835181860281018601909452808452606095929492939283018282801561163457602002820191906000526020600020905b815481526020019060010190808311611620575b5050505050905060008267ffffffffffffffff81111561165657611656612a48565b6040519080825280602002602001820160405280156116a757816020015b60408051608081018252600080825260208083018290529282015260608082015282526000199092019101816116745790505b50905060005b838110156117e157601160008483815181106116cb576116cb61307b565b602090810291909101810151825281810192909252604090810160002081516080810183528154815260018201546001600160a01b039081169482019490945260028201549093169183019190915260038101805460608401919061172f90612d79565b80601f016020809104026020016040519081016040528092919081815260200182805461175b90612d79565b80156117a85780601f1061177d576101008083540402835291602001916117a8565b820191906000526020600020905b81548152906001019060200180831161178b57829003601f168201915b5050505050815250508282815181106117c3576117c361307b565b602002602001018190525080806117d990612df3565b9150506116ad565b50949350505050565b60006001600160a01b0382166118545760405162461bcd60e51b815260206004820152602960248201527f4552433732313a2061646472657373207a65726f206973206e6f7420612076616044820152683634b21037bbb732b960b91b606482015260840161093f565b506001600160a01b031660009081526003602052604090205490565b600c546001600160a01b0316331461189a5760405162461bcd60e51b815260040161093f90612dad565b600092835260186020908152604080852080546001600160a01b0319166001600160a01b03959095169490941790935560199052912055565b60606000600e5467ffffffffffffffff8111156118f2576118f2612a48565b60405190808252806020026020018201604052801561194357816020015b60408051608081018252600080825260208083018290529282015260608082015282526000199092019101816119105790505b50905060005b600e54811015611a6e5760116000611962836001613091565b8152602080820192909252604090810160002081516080810183528154815260018201546001600160a01b03908116948201949094526002820154909316918301919091526003810180546060840191906119bc90612d79565b80601f01602080910402602001604051908101604052809291908181526020018280546119e890612d79565b8015611a355780601f10611a0a57610100808354040283529160200191611a35565b820191906000526020600020905b815481529060010190602001808311611a1857829003601f168201915b505050505081525050828281518110611a5057611a5061307b565b60200260200101819052508080611a6690612df3565b915050611949565b50919050565b600b546001600160a01b03163314611ac75760405162461bcd60e51b81526020600482015260166024820152754e6f74206f776e6572206f6620636f6e74726163742160501b604482015260640161093f565b600c80546001600160a01b0319166001600160a01b0392909216919091179055565b60606001805461082190612d79565b611b03338383611f7b565b5050565b611b113383611d4c565b611b2d5760405162461bcd60e51b815260040161093f90612fd9565b611b3984848484612049565b50505050565b600c546001600160a01b03163314611b695760405162461bcd60e51b815260040161093f90612dad565b600c546040516001600160a01b03909116904780156108fc02916000818181858888f193505050501580156109ef573d6000803e3d6000fd5b606061080c8261207c565b60006001600160e01b0319821663780e9d6360e01b148061080c575061080c82612184565b6000818152600260205260409020546001600160a01b03166109ef5760405162461bcd60e51b8152602060048201526018602482015277115490cdcc8c4e881a5b9d985b1a59081d1bdad95b88125160421b604482015260640161093f565b600081815260046020526040902080546001600160a01b0319166001600160a01b0384169081179091558190611c66826114cf565b6001600160a01b03167f8c5be1e5ebec7d5bd14f71427d1e84f3dd0314c0f7b2291e5b200ac8c7c3b92560405160405180910390a45050565b611b038282604051806020016040528060008152506121d4565b6000828152600260205260409020546001600160a01b0316611d345760405162461bcd60e51b815260206004820152602e60248201527f45524337323155524953746f726167653a2055524920736574206f66206e6f6e60448201526d32bc34b9ba32b73a103a37b5b2b760911b606482015260840161093f565b60008281526006602052604090206109e08282612e5a565b600080611d58836114cf565b9050806001600160a01b0316846001600160a01b03161480611d9f57506001600160a01b0380821660009081526005602090815260408083209388168352929052205460ff165b80611dc35750836001600160a01b0316611db8846108a4565b6001600160a01b0316145b949350505050565b826001600160a01b0316611dde826114cf565b6001600160a01b031614611e425760405162461bcd60e51b815260206004820152602560248201527f4552433732313a207472616e736665722066726f6d20696e636f72726563742060448201526437bbb732b960d91b606482015260840161093f565b6001600160a01b038216611ea45760405162461bcd60e51b8152602060048201526024808201527f4552433732313a207472616e7366657220746f20746865207a65726f206164646044820152637265737360e01b606482015260840161093f565b611eaf838383612207565b611eba600082611c31565b6001600160a01b0383166000908152600360205260408120805460019290611ee3908490613068565b90915550506001600160a01b0382166000908152600360205260408120805460019290611f11908490613091565b909155505060008181526002602052604080822080546001600160a01b0319166001600160a01b0386811691821790925591518493918716917fddf252ad1be2c89b69c2b068fc378daa952ba7f163c4a11628f55a4df523b3ef91a4505050565b6109ef81612212565b816001600160a01b0316836001600160a01b031603611fdc5760405162461bcd60e51b815260206004820152601960248201527f4552433732313a20617070726f766520746f2063616c6c657200000000000000604482015260640161093f565b6001600160a01b03838116600081815260056020908152604080832094871680845294825291829020805460ff191686151590811790915591519182527f17307eab39ab6107e8899845ad3d59bd9653f200f220920489ca2b5937696c31910160405180910390a3505050565b612054848484611dcb565b61206084848484612252565b611b395760405162461bcd60e51b815260040161093f906130a4565b606061208782611bd2565b600082815260066020526040812080546120a090612d79565b80601f01602080910402602001604051908101604052809291908181526020018280546120cc90612d79565b80156121195780601f106120ee57610100808354040283529160200191612119565b820191906000526020600020905b8154815290600101906020018083116120fc57829003601f168201915b50505050509050600061213760408051602081019091526000815290565b90508051600003612149575092915050565b81511561217b5780826040516020016121639291906130f6565b60405160208183030381529060405292505050919050565b611dc384612353565b60006001600160e01b031982166380ac58cd60e01b14806121b557506001600160e01b03198216635b5e139f60e01b145b8061080c57506301ffc9a760e01b6001600160e01b031983161461080c565b6121de83836123c7565b6121eb6000848484612252565b6109e05760405162461bcd60e51b815260040161093f906130a4565b6109e0838383612515565b61221b816125cd565b6000818152600660205260409020805461223490612d79565b1590506109ef5760008181526006602052604081206109ef91612905565b60006001600160a01b0384163b1561234857604051630a85bd0160e11b81526001600160a01b0385169063150b7a0290612296903390899088908890600401613125565b6020604051808303816000875af19250505080156122d1575060408051601f3d908101601f191682019092526122ce91810190613158565b60015b61232e573d8080156122ff576040519150601f19603f3d011682016040523d82523d6000602084013e612304565b606091505b5080516000036123265760405162461bcd60e51b815260040161093f906130a4565b805181602001fd5b6001600160e01b031916630a85bd0160e11b149050611dc3565b506001949350505050565b606061235e82611bd2565b600061237560408051602081019091526000815290565b9050600081511161239557604051806020016040528060008152506123c0565b8061239f84612674565b6040516020016123b09291906130f6565b6040516020818303038152906040525b9392505050565b6001600160a01b03821661241d5760405162461bcd60e51b815260206004820181905260248201527f4552433732313a206d696e7420746f20746865207a65726f2061646472657373604482015260640161093f565b6000818152600260205260409020546001600160a01b0316156124825760405162461bcd60e51b815260206004820152601c60248201527f4552433732313a20746f6b656e20616c7265616479206d696e74656400000000604482015260640161093f565b61248e60008383612207565b6001600160a01b03821660009081526003602052604081208054600192906124b7908490613091565b909155505060008181526002602052604080822080546001600160a01b0319166001600160a01b03861690811790915590518392907fddf252ad1be2c89b69c2b068fc378daa952ba7f163c4a11628f55a4df523b3ef908290a45050565b6001600160a01b0383166125705761256b81600980546000838152600a60205260408120829055600182018355919091527f6e1540171b6c0c960b71a7020d9f60077f6af931a8bbf590da0223dacf75c7af0155565b612593565b816001600160a01b0316836001600160a01b031614612593576125938382612775565b6001600160a01b0382166125aa576109e081612812565b826001600160a01b0316826001600160a01b0316146109e0576109e082826128c1565b60006125d8826114cf565b90506125e681600084612207565b6125f1600083611c31565b6001600160a01b038116600090815260036020526040812080546001929061261a908490613068565b909155505060008281526002602052604080822080546001600160a01b0319169055518391906001600160a01b038416907fddf252ad1be2c89b69c2b068fc378daa952ba7f163c4a11628f55a4df523b3ef908390a45050565b60608160000361269b5750506040805180820190915260018152600360fc1b602082015290565b8160005b81156126c557806126af81612df3565b91506126be9050600a83613054565b915061269f565b60008167ffffffffffffffff8111156126e0576126e0612a48565b6040519080825280601f01601f19166020018201604052801561270a576020820181803683370190505b5090505b8415611dc35761271f600183613068565b915061272c600a86613175565b612737906030613091565b60f81b81838151811061274c5761274c61307b565b60200101906001600160f81b031916908160001a90535061276e600a86613054565b945061270e565b60006001612782846117ea565b61278c9190613068565b6000838152600860205260409020549091508082146127df576001600160a01b03841660009081526007602090815260408083208584528252808320548484528184208190558352600890915290208190555b5060009182526008602090815260408084208490556001600160a01b039094168352600781528383209183525290812055565b60095460009061282490600190613068565b6000838152600a60205260408120546009805493945090928490811061284c5761284c61307b565b90600052602060002001549050806009838154811061286d5761286d61307b565b6000918252602080832090910192909255828152600a909152604080822084905585825281205560098054806128a5576128a5613189565b6001900381819060005260206000200160009055905550505050565b60006128cc836117ea565b6001600160a01b039093166000908152600760209081526040808320868452825280832085905593825260089052919091209190915550565b50805461291190612d79565b6000825580601f10612921575050565b601f0160209004906000526020600020908101906109ef91905b8082111561294f576000815560010161293b565b5090565b6001600160e01b0319811681146109ef57600080fd5b60006020828403121561297b57600080fd5b81356123c081612953565b60005b838110156129a1578181015183820152602001612989565b50506000910152565b600081518084526129c2816020860160208601612986565b601f01601f19169290920160200192915050565b6020815260006123c060208301846129aa565b6000602082840312156129fb57600080fd5b5035919050565b80356001600160a01b0381168114612a1957600080fd5b919050565b60008060408385031215612a3157600080fd5b612a3a83612a02565b946020939093013593505050565b634e487b7160e01b600052604160045260246000fd5b600067ffffffffffffffff80841115612a7957612a79612a48565b604051601f8501601f19908116603f01168101908282118183101715612aa157612aa1612a48565b81604052809350858152868686011115612aba57600080fd5b858560208301376000602087830101525050509392505050565b600080600060608486031215612ae957600080fd5b83359250602084013567ffffffffffffffff811115612b0757600080fd5b8401601f81018613612b1857600080fd5b612b2786823560208401612a5e565b925050612b3660408501612a02565b90509250925092565b600080600060608486031215612b5457600080fd5b612b5d84612a02565b9250612b6b60208501612a02565b9150604084013590509250925092565b8481526001600160a01b03848116602083015283166040820152608060608201819052600090612bad908301846129aa565b9695505050505050565b600060208284031215612bc957600080fd5b6123c082612a02565b60006020808301818452808551808352604092508286019150828160051b87010184880160005b83811015612c5b57888303603f19018552815180518452878101516001600160a01b0390811689860152878201511687850152606090810151608091850182905290612c47818601836129aa565b968901969450505090860190600101612bf9565b509098975050505050505050565b600080600060608486031215612c7e57600080fd5b83359250612b6b60208501612a02565b60008060408385031215612ca157600080fd5b612caa83612a02565b915060208301358015158114612cbf57600080fd5b809150509250929050565b60008060008060808587031215612ce057600080fd5b612ce985612a02565b9350612cf760208601612a02565b925060408501359150606085013567ffffffffffffffff811115612d1a57600080fd5b8501601f81018713612d2b57600080fd5b612d3a87823560208401612a5e565b91505092959194509250565b60008060408385031215612d5957600080fd5b612d6283612a02565b9150612d7060208401612a02565b90509250929050565b600181811c90821680612d8d57607f821691505b602082108103611a6e57634e487b7160e01b600052602260045260246000fd5b60208082526016908201527555736572206973206e6f7420617574686f726974792160501b604082015260600190565b634e487b7160e01b600052601160045260246000fd5b600060018201612e0557612e05612ddd565b5060010190565b601f8211156109e057600081815260208120601f850160051c81016020861015612e335750805b601f850160051c820191505b81811015612e5257828155600101612e3f565b505050505050565b815167ffffffffffffffff811115612e7457612e74612a48565b612e8881612e828454612d79565b84612e0c565b602080601f831160018114612ebd5760008415612ea55750858301515b600019600386901b1c1916600185901b178555612e52565b600085815260208120601f198616915b82811015612eec57888601518255948401946001909101908401612ecd565b5085821015612f0a5787850151600019600388901b60f8161c191681555b5050505050600190811b01905550565b60208082528254828201526001808401546001600160a01b039081166040850152600285015416606084015260808084015260038401805460009392908490612f6281612d79565b8060a089015260c084831660008114612f825760018114612f9c57612fca565b60ff1984168a83015282151560051b8a0182019450612fca565b866000528760002060005b84811015612fc25781548c8201850152908701908901612fa7565b8b0183019550505b50929998505050505050505050565b6020808252602e908201527f4552433732313a2063616c6c6572206973206e6f7420746f6b656e206f776e6560408201526d1c881b9bdc88185c1c1c9bdd995960921b606082015260800190565b808202811582820484141761080c5761080c612ddd565b634e487b7160e01b600052601260045260246000fd5b6000826130635761306361303e565b500490565b8181038181111561080c5761080c612ddd565b634e487b7160e01b600052603260045260246000fd5b8082018082111561080c5761080c612ddd565b60208082526032908201527f4552433732313a207472616e7366657220746f206e6f6e20455243373231526560408201527131b2b4bb32b91034b6b83632b6b2b73a32b960711b606082015260800190565b60008351613108818460208801612986565b83519083019061311c818360208801612986565b01949350505050565b6001600160a01b0385811682528416602082015260408101839052608060608201819052600090612bad908301846129aa565b60006020828403121561316a57600080fd5b81516123c081612953565b6000826131845761318461303e565b500690565b634e487b7160e01b600052603160045260246000fdfea26469706673582212207495056298f14811731dd2e3fcf22d0e9695dc1d51fd03bf35cfb621e8baac3364736f6c63430008110033",
  "immutableReferences": {},
  "source": "// SPDX-License-Identifier: GPL-3.0\r\npragma solidity 0.8.17;\r\n\r\nimport \"@openzeppelin/contracts/token/ERC721/extensions/ERC721URIStorage.sol\";\r\nimport \"@openzeppelin/contracts/token/ERC721/extensions/ERC721Enumerable.sol\";\r\nimport \"./Permissions.sol\";\r\n\r\ncontract NFT is ERC721URIStorage, ERC721Enumerable, Permissions {\r\n    uint256 public tokenCount;\r\n\r\n    constructor() ERC721(\"Patent NFT\", \"PNFT\") {\r\n        _patentFees = 0.0046 ether;\r\n        _transferCommissionPercentage = 5;\r\n    }\r\n\r\n    struct TokenInfo {\r\n        uint256 tokenId;\r\n        address initialTokenOwner;\r\n        address currentTokenOwner;\r\n        string tokenURI;\r\n    }\r\n    uint256 public _patentFees;\r\n    uint256 public _transferCommissionPercentage = 5;\r\n    mapping(uint256 => TokenInfo) public _tokenList;\r\n    mapping(address => uint256[]) public _ownedTokens;\r\n    mapping(address => uint256) public _ownedTokensCount;\r\n    mapping(uint256 => address) public _initialTokenOwnerOf;\r\n    mapping(uint256 => address) public _currentTokenOwnerOf;\r\n    mapping(uint256 => string) public _tokenURIOf;\r\n    mapping(uint256 => bool) public _feePaymentStatus;\r\n    mapping(uint256 => address) public _tokenBuyer;\r\n    mapping(uint256 => uint256) public _tokenPrice;\r\n    mapping(uint256 => uint256) public _transferCount;\r\n\r\n    event MintEvent(TokenInfo);\r\n    event TransferEvent(\r\n        uint256 tokenId,\r\n        address from,\r\n        address to,\r\n        uint256 price,\r\n        uint256 commission\r\n    );\r\n    event PatentPaymentEvent(uint256 tokenId, uint256 amount, address user);\r\n    event TransactionLog(\r\n        uint256 tokenId,\r\n        uint256 amount,\r\n        address from,\r\n        address to,\r\n        string transactionType,\r\n        uint256 timestamp\r\n    );\r\n\r\n    function mint(\r\n        uint256 _tokenId,\r\n        string memory _tokenURI,\r\n        address _owner\r\n    ) external onlyAuthority {\r\n        require(\r\n            _feePaymentStatus[_tokenId] = true,\r\n            \"Fees has not been paid for this patent.\"\r\n        );\r\n        tokenCount++;\r\n        _safeMint(_owner, _tokenId);\r\n        _setTokenURI(_tokenId, _tokenURI);\r\n        _tokenList[_tokenId] = TokenInfo(_tokenId, _owner, _owner, _tokenURI);\r\n        _ownedTokensCount[_owner]++;\r\n        _ownedTokens[_owner].push(_tokenId);\r\n        _initialTokenOwnerOf[_tokenId] = _owner;\r\n        _currentTokenOwnerOf[_tokenId] = _owner;\r\n        _tokenURIOf[_tokenId] = _tokenURI;\r\n        emit MintEvent(_tokenList[_tokenId]);\r\n        emit TransactionLog(\r\n            _tokenId,\r\n            0,\r\n            address(0),\r\n            _owner,\r\n            \"NFT Created\",\r\n            block.timestamp\r\n        );\r\n    }\r\n\r\n    function listTokens() external view returns (TokenInfo[] memory) {\r\n        TokenInfo[] memory allTokens = new TokenInfo[](tokenCount);\r\n        for (uint256 i = 0; i < tokenCount; i++) {\r\n            allTokens[i] = _tokenList[i + 1];\r\n        }\r\n        return allTokens;\r\n    }\r\n\r\n    function listTokensOf(address _address)\r\n        external\r\n        view\r\n        returns (TokenInfo[] memory)\r\n    {\r\n        uint256 ownedTokensCount = _ownedTokensCount[_address];\r\n        uint256[] memory ownedTokens = _ownedTokens[_address];\r\n        TokenInfo[] memory ownTokens = new TokenInfo[](ownedTokensCount);\r\n        for (uint256 i = 0; i < ownedTokensCount; i++) {\r\n            ownTokens[i] = _tokenList[ownedTokens[i]];\r\n        }\r\n        return ownTokens;\r\n    }\r\n\r\n    // The following functions are overrides required by Solidity.\r\n\r\n    function _beforeTokenTransfer(\r\n        address from,\r\n        address to,\r\n        uint256 tokenId\r\n    ) internal override(ERC721, ERC721Enumerable) {\r\n        super._beforeTokenTransfer(from, to, tokenId);\r\n    }\r\n\r\n    function _burn(uint256 tokenId)\r\n        internal\r\n        override(ERC721, ERC721URIStorage)\r\n    {\r\n        super._burn(tokenId);\r\n    }\r\n\r\n    function burn(uint256 _tokenId) external onlyAuthority {\r\n        _tokenList[_tokenId].currentTokenOwner = address(0);\r\n        _burn(_tokenId);\r\n    }\r\n\r\n    function tokenURI(uint256 tokenId)\r\n        public\r\n        view\r\n        override(ERC721, ERC721URIStorage)\r\n        returns (string memory)\r\n    {\r\n        return super.tokenURI(tokenId);\r\n    }\r\n\r\n    function supportsInterface(bytes4 interfaceId)\r\n        public\r\n        view\r\n        override(ERC721, ERC721Enumerable)\r\n        returns (bool)\r\n    {\r\n        return super.supportsInterface(interfaceId);\r\n    }\r\n\r\n    function setTransferCommission(uint256 value) external onlyAuthority {\r\n        _transferCommissionPercentage = value;\r\n    }\r\n\r\n    function setPatentFees(uint256 _amount) external onlyAuthority {\r\n        _patentFees = _amount;\r\n    }\r\n\r\n    function payPatentFees(uint256 _tokenId) external payable {\r\n        require(\r\n            _feePaymentStatus[_tokenId] == false,\r\n            \"Fees for this patent has already been paid\"\r\n        );\r\n        require(_patentFees == msg.value, \"Amount not equal to patent fees\");\r\n        _feePaymentStatus[_tokenId] = true;\r\n        authority.transfer(msg.value);\r\n        emit PatentPaymentEvent(_tokenId, _patentFees, msg.sender);\r\n        emit TransactionLog(\r\n            _tokenId,\r\n            msg.value,\r\n            msg.sender,\r\n            authority,\r\n            \"Patent Fees Paid\",\r\n            block.timestamp\r\n        );\r\n    }\r\n\r\n    //Should be called by the token owner\r\n    function giveApprovalToContract(uint256 _tokenId) public {\r\n        approve(address(this), _tokenId);\r\n    }\r\n\r\n    function setTokenBuyer(\r\n        uint256 _tokenId,\r\n        address _buyer,\r\n        uint256 _price\r\n    ) external onlyAuthority {\r\n        _tokenBuyer[_tokenId] = _buyer;\r\n        _tokenPrice[_tokenId] = _price;\r\n    }\r\n\r\n    //Should be called(by buyer) after getting approval from token owner\r\n    function buyNft(uint256 _tokenId) external payable {\r\n        require(\r\n            msg.sender == _tokenBuyer[_tokenId],\r\n            \"Transfer not authoried by Authority.\"\r\n        );\r\n        require(\r\n            msg.value == _tokenPrice[_tokenId],\r\n            \"Token price not equal to set price.\"\r\n        );\r\n        address _tokenOwner = _tokenList[_tokenId].currentTokenOwner;\r\n        require(msg.sender != _tokenOwner, \"You already own this token.\");\r\n        uint256 _totalPrice = msg.value;\r\n        address payable seller = payable(_tokenOwner);\r\n        uint256 _commission = (_totalPrice * _transferCommissionPercentage) /\r\n            100;\r\n        uint256 _remainingAmount = _totalPrice - _commission;\r\n        address _buyer = msg.sender;\r\n        authority.transfer(_commission); //commission\r\n        seller.transfer(_remainingAmount);\r\n        this.safeTransferFrom(_tokenOwner, _buyer, _tokenId);\r\n        _transferCount[_tokenId]++;\r\n        _tokenList[_tokenId].currentTokenOwner = _buyer;\r\n        _currentTokenOwnerOf[_tokenId] = _buyer;\r\n        _tokenBuyer[_tokenId] = address(0);\r\n        _tokenPrice[_tokenId] = 0;\r\n        emit TransferEvent(\r\n            _tokenId,\r\n            _tokenOwner,\r\n            _buyer,\r\n            _totalPrice,\r\n            _commission\r\n        );\r\n        emit TransactionLog(\r\n            _tokenId,\r\n            msg.value,\r\n            _tokenOwner,\r\n            _buyer,\r\n            \"Patent Transferred\",\r\n            block.timestamp\r\n        );\r\n    }\r\n\r\n    function clearContractBalance() external onlyAuthority {\r\n        authority.transfer(address(this).balance);\r\n    }\r\n}",
  "sourcePath": "D:\\Projects\\Patent_workflow\\patent-workflow-blockchain\\SourceCode\\Ethereum\\contracts\\NFT.sol",
  "compiler": {
    "name": "solc",
    "version": "0.8.17+commit.8df45f5f.Emscripten.clang"
  },
  "schemaVersion": "3.4.7",
  "updatedAt": "2022-10-18T11:08:18.703Z",
  "networkType": "ethereum",
  "devdoc": {
    "kind": "dev",
    "methods": {
      "approve(address,uint256)": {
        "details": "See {IERC721-approve}."
      },
      "balanceOf(address)": {
        "details": "See {IERC721-balanceOf}."
      },
      "getApproved(uint256)": {
        "details": "See {IERC721-getApproved}."
      },
      "isApprovedForAll(address,address)": {
        "details": "See {IERC721-isApprovedForAll}."
      },
      "name()": {
        "details": "See {IERC721Metadata-name}."
      },
      "ownerOf(uint256)": {
        "details": "See {IERC721-ownerOf}."
      },
      "safeTransferFrom(address,address,uint256)": {
        "details": "See {IERC721-safeTransferFrom}."
      },
      "safeTransferFrom(address,address,uint256,bytes)": {
        "details": "See {IERC721-safeTransferFrom}."
      },
      "setApprovalForAll(address,bool)": {
        "details": "See {IERC721-setApprovalForAll}."
      },
      "symbol()": {
        "details": "See {IERC721Metadata-symbol}."
      },
      "tokenByIndex(uint256)": {
        "details": "See {IERC721Enumerable-tokenByIndex}."
      },
      "tokenOfOwnerByIndex(address,uint256)": {
        "details": "See {IERC721Enumerable-tokenOfOwnerByIndex}."
      },
      "totalSupply()": {
        "details": "See {IERC721Enumerable-totalSupply}."
      },
      "transferFrom(address,address,uint256)": {
        "details": "See {IERC721-transferFrom}."
      }
    },
    "version": 1
  },
  "userdoc": {
    "kind": "user",
    "methods": {},
    "version": 1
  }
}