{
  "contractName": "NFT",
  "abi": [
    {
      "inputs": [],
      "stateMutability": "nonpayable",
      "type": "constructor"
    },
    {
      "anonymous": false,
      "inputs": [
        {
          "indexed": true,
          "internalType": "address",
          "name": "owner",
          "type": "address"
        },
        {
          "indexed": true,
          "internalType": "address",
          "name": "approved",
          "type": "address"
        },
        {
          "indexed": true,
          "internalType": "uint256",
          "name": "tokenId",
          "type": "uint256"
        }
      ],
      "name": "Approval",
      "type": "event"
    },
    {
      "anonymous": false,
      "inputs": [
        {
          "indexed": true,
          "internalType": "address",
          "name": "owner",
          "type": "address"
        },
        {
          "indexed": true,
          "internalType": "address",
          "name": "operator",
          "type": "address"
        },
        {
          "indexed": false,
          "internalType": "bool",
          "name": "approved",
          "type": "bool"
        }
      ],
      "name": "ApprovalForAll",
      "type": "event"
    },
    {
      "anonymous": false,
      "inputs": [
        {
          "indexed": true,
          "internalType": "address",
          "name": "from",
          "type": "address"
        },
        {
          "indexed": true,
          "internalType": "address",
          "name": "to",
          "type": "address"
        },
        {
          "indexed": true,
          "internalType": "uint256",
          "name": "tokenId",
          "type": "uint256"
        }
      ],
      "name": "Transfer",
      "type": "event"
    },
    {
      "inputs": [
        {
          "internalType": "address",
          "name": "",
          "type": "address"
        },
        {
          "internalType": "uint256",
          "name": "",
          "type": "uint256"
        }
      ],
      "name": "_ownedTokens",
      "outputs": [
        {
          "internalType": "uint256",
          "name": "",
          "type": "uint256"
        }
      ],
      "stateMutability": "view",
      "type": "function",
      "constant": true
    },
    {
      "inputs": [
        {
          "internalType": "address",
          "name": "",
          "type": "address"
        }
      ],
      "name": "_ownedTokensCount",
      "outputs": [
        {
          "internalType": "uint256",
          "name": "",
          "type": "uint256"
        }
      ],
      "stateMutability": "view",
      "type": "function",
      "constant": true
    },
    {
      "inputs": [
        {
          "internalType": "uint256",
          "name": "",
          "type": "uint256"
        }
      ],
      "name": "_tokenList",
      "outputs": [
        {
          "internalType": "uint256",
          "name": "tokenId",
          "type": "uint256"
        },
        {
          "internalType": "uint256",
          "name": "userId",
          "type": "uint256"
        },
        {
          "internalType": "address",
          "name": "initialTokenOwner",
          "type": "address"
        },
        {
          "internalType": "address",
          "name": "currentTokenOwner",
          "type": "address"
        },
        {
          "internalType": "string",
          "name": "tokenURI",
          "type": "string"
        }
      ],
      "stateMutability": "view",
      "type": "function",
      "constant": true
    },
    {
      "inputs": [
        {
          "internalType": "address",
          "name": "to",
          "type": "address"
        },
        {
          "internalType": "uint256",
          "name": "tokenId",
          "type": "uint256"
        }
      ],
      "name": "approve",
      "outputs": [],
      "stateMutability": "nonpayable",
      "type": "function"
    },
    {
      "inputs": [
        {
          "internalType": "address",
          "name": "_user",
          "type": "address"
        }
      ],
      "name": "authoriseUser",
      "outputs": [],
      "stateMutability": "nonpayable",
      "type": "function"
    },
    {
      "inputs": [
        {
          "internalType": "address",
          "name": "owner",
          "type": "address"
        }
      ],
      "name": "balanceOf",
      "outputs": [
        {
          "internalType": "uint256",
          "name": "",
          "type": "uint256"
        }
      ],
      "stateMutability": "view",
      "type": "function",
      "constant": true
    },
    {
      "inputs": [
        {
          "internalType": "uint256",
          "name": "tokenId",
          "type": "uint256"
        }
      ],
      "name": "getApproved",
      "outputs": [
        {
          "internalType": "address",
          "name": "",
          "type": "address"
        }
      ],
      "stateMutability": "view",
      "type": "function",
      "constant": true
    },
    {
      "inputs": [
        {
          "internalType": "address",
          "name": "owner",
          "type": "address"
        },
        {
          "internalType": "address",
          "name": "operator",
          "type": "address"
        }
      ],
      "name": "isApprovedForAll",
      "outputs": [
        {
          "internalType": "bool",
          "name": "",
          "type": "bool"
        }
      ],
      "stateMutability": "view",
      "type": "function",
      "constant": true
    },
    {
      "inputs": [],
      "name": "name",
      "outputs": [
        {
          "internalType": "string",
          "name": "",
          "type": "string"
        }
      ],
      "stateMutability": "view",
      "type": "function",
      "constant": true
    },
    {
      "inputs": [
        {
          "internalType": "uint256",
          "name": "tokenId",
          "type": "uint256"
        }
      ],
      "name": "ownerOf",
      "outputs": [
        {
          "internalType": "address",
          "name": "",
          "type": "address"
        }
      ],
      "stateMutability": "view",
      "type": "function",
      "constant": true
    },
    {
      "inputs": [
        {
          "internalType": "address",
          "name": "from",
          "type": "address"
        },
        {
          "internalType": "address",
          "name": "to",
          "type": "address"
        },
        {
          "internalType": "uint256",
          "name": "tokenId",
          "type": "uint256"
        }
      ],
      "name": "safeTransferFrom",
      "outputs": [],
      "stateMutability": "nonpayable",
      "type": "function"
    },
    {
      "inputs": [
        {
          "internalType": "address",
          "name": "from",
          "type": "address"
        },
        {
          "internalType": "address",
          "name": "to",
          "type": "address"
        },
        {
          "internalType": "uint256",
          "name": "tokenId",
          "type": "uint256"
        },
        {
          "internalType": "bytes",
          "name": "data",
          "type": "bytes"
        }
      ],
      "name": "safeTransferFrom",
      "outputs": [],
      "stateMutability": "nonpayable",
      "type": "function"
    },
    {
      "inputs": [
        {
          "internalType": "address",
          "name": "operator",
          "type": "address"
        },
        {
          "internalType": "bool",
          "name": "approved",
          "type": "bool"
        }
      ],
      "name": "setApprovalForAll",
      "outputs": [],
      "stateMutability": "nonpayable",
      "type": "function"
    },
    {
      "inputs": [
        {
          "internalType": "bytes4",
          "name": "interfaceId",
          "type": "bytes4"
        }
      ],
      "name": "supportsInterface",
      "outputs": [
        {
          "internalType": "bool",
          "name": "",
          "type": "bool"
        }
      ],
      "stateMutability": "view",
      "type": "function",
      "constant": true
    },
    {
      "inputs": [],
      "name": "symbol",
      "outputs": [
        {
          "internalType": "string",
          "name": "",
          "type": "string"
        }
      ],
      "stateMutability": "view",
      "type": "function",
      "constant": true
    },
    {
      "inputs": [],
      "name": "tokenCount",
      "outputs": [
        {
          "internalType": "uint256",
          "name": "",
          "type": "uint256"
        }
      ],
      "stateMutability": "view",
      "type": "function",
      "constant": true
    },
    {
      "inputs": [
        {
          "internalType": "uint256",
          "name": "tokenId",
          "type": "uint256"
        }
      ],
      "name": "tokenURI",
      "outputs": [
        {
          "internalType": "string",
          "name": "",
          "type": "string"
        }
      ],
      "stateMutability": "view",
      "type": "function",
      "constant": true
    },
    {
      "inputs": [
        {
          "internalType": "address",
          "name": "from",
          "type": "address"
        },
        {
          "internalType": "address",
          "name": "to",
          "type": "address"
        },
        {
          "internalType": "uint256",
          "name": "tokenId",
          "type": "uint256"
        }
      ],
      "name": "transferFrom",
      "outputs": [],
      "stateMutability": "nonpayable",
      "type": "function"
    },
    {
      "inputs": [
        {
          "internalType": "string",
          "name": "_tokenURI",
          "type": "string"
        },
        {
          "internalType": "address",
          "name": "_owner",
          "type": "address"
        },
        {
          "internalType": "uint256",
          "name": "_userId",
          "type": "uint256"
        }
      ],
      "name": "mint",
      "outputs": [
        {
          "internalType": "uint256",
          "name": "",
          "type": "uint256"
        }
      ],
      "stateMutability": "nonpayable",
      "type": "function"
    },
    {
      "inputs": [
        {
          "internalType": "address",
          "name": "_to",
          "type": "address"
        },
        {
          "internalType": "uint256",
          "name": "_tokenId",
          "type": "uint256"
        }
      ],
      "name": "transfer",
      "outputs": [],
      "stateMutability": "nonpayable",
      "type": "function"
    },
    {
      "inputs": [
        {
          "internalType": "uint256",
          "name": "_tokenId",
          "type": "uint256"
        }
      ],
      "name": "giveApprovalToContract",
      "outputs": [],
      "stateMutability": "nonpayable",
      "type": "function"
    },
    {
      "inputs": [],
      "name": "listTokens",
      "outputs": [
        {
          "components": [
            {
              "internalType": "uint256",
              "name": "tokenId",
              "type": "uint256"
            },
            {
              "internalType": "uint256",
              "name": "userId",
              "type": "uint256"
            },
            {
              "internalType": "address",
              "name": "initialTokenOwner",
              "type": "address"
            },
            {
              "internalType": "address",
              "name": "currentTokenOwner",
              "type": "address"
            },
            {
              "internalType": "string",
              "name": "tokenURI",
              "type": "string"
            }
          ],
          "internalType": "struct NFT.TokenInfo[]",
          "name": "",
          "type": "tuple[]"
        }
      ],
      "stateMutability": "view",
      "type": "function",
      "constant": true
    },
    {
      "inputs": [
        {
          "internalType": "address",
          "name": "_address",
          "type": "address"
        }
      ],
      "name": "listTokensOf",
      "outputs": [
        {
          "components": [
            {
              "internalType": "uint256",
              "name": "tokenId",
              "type": "uint256"
            },
            {
              "internalType": "uint256",
              "name": "userId",
              "type": "uint256"
            },
            {
              "internalType": "address",
              "name": "initialTokenOwner",
              "type": "address"
            },
            {
              "internalType": "address",
              "name": "currentTokenOwner",
              "type": "address"
            },
            {
              "internalType": "string",
              "name": "tokenURI",
              "type": "string"
            }
          ],
          "internalType": "struct NFT.TokenInfo[]",
          "name": "",
          "type": "tuple[]"
        }
      ],
      "stateMutability": "view",
      "type": "function",
      "constant": true
    }
  ],
  "bytecode": "0x60806040523480156200001157600080fd5b506040518060400160405280600a81526020016914185d195b9d0813919560b21b815250604051806040016040528060048152602001631413919560e21b815250816000908162000063919062000132565b50600162000072828262000132565b5050600780546001600160a01b0319163317905550620001fe565b634e487b7160e01b600052604160045260246000fd5b600181811c90821680620000b857607f821691505b602082108103620000d957634e487b7160e01b600052602260045260246000fd5b50919050565b601f8211156200012d57600081815260208120601f850160051c81016020861015620001085750805b601f850160051c820191505b81811015620001295782815560010162000114565b5050505b505050565b81516001600160401b038111156200014e576200014e6200008d565b62000166816200015f8454620000a3565b84620000df565b602080601f8311600181146200019e5760008415620001855750858301515b600019600386901b1c1916600185901b17855562000129565b600085815260208120601f198616915b82811015620001cf57888601518255948401946001909101908401620001ae565b5085821015620001ee5787850151600019600388901b60f8161c191681555b5050505050600190811b01905550565b611f51806200020e6000396000f3fe608060405234801561001057600080fd5b506004361061014d5760003560e01c806370a08231116100c3578063a9059cbb1161007c578063a9059cbb146102d2578063b88d4fde146102e5578063c87b56dd146102f8578063de3bea0d1461030b578063e985e9c51461031e578063f66317181461035a57600080fd5b806370a08231146102805780637488ff76146102935780637e8816b91461029b57806395d89b41146102ae5780639f181b5e146102b6578063a22cb465146102bf57600080fd5b806323b872dd1161011557806323b872dd146101e257806342842e0e146101f55780634eb6b067146102085780634f3c5f061461022c5780636352211e1461024d578063663e20911461026057600080fd5b806301ffc9a71461015257806306fdde031461017a578063081812fc1461018f578063095ea7b3146101ba5780630c10ec2f146101cf575b600080fd5b610165610160366004611807565b61037a565b60405190151581526020015b60405180910390f35b6101826103cc565b604051610171919061187c565b6101a261019d36600461188f565b61045e565b6040516001600160a01b039091168152602001610171565b6101cd6101c83660046118c4565b610485565b005b6101cd6101dd36600461188f565b61059f565b6101cd6101f03660046118ee565b6105ac565b6101cd6102033660046118ee565b6105dd565b61021b61021636600461188f565b6105f8565b60405161017195949392919061192a565b61023f61023a3660046118c4565b6106be565b604051908152602001610171565b6101a261025b36600461188f565b6106ef565b61027361026e36600461196e565b61074f565b6040516101719190611989565b61023f61028e36600461196e565b610962565b6102736109e8565b61023f6102a9366004611ab8565b610b7b565b610182610cfc565b61023f60095481565b6101cd6102cd366004611b13565b610d0b565b6101cd6102e03660046118c4565b610d1a565b6101cd6102f3366004611b4f565b610d71565b61018261030636600461188f565b610da9565b6101cd61031936600461196e565b610eb9565b61016561032c366004611bcb565b6001600160a01b03918216600090815260056020908152604080832093909416825291909152205460ff1690565b61023f61036836600461196e565b600c6020526000908152604090205481565b60006001600160e01b031982166380ac58cd60e01b14806103ab57506001600160e01b03198216635b5e139f60e01b145b806103c657506301ffc9a760e01b6001600160e01b03198316145b92915050565b6060600080546103db90611bfe565b80601f016020809104026020016040519081016040528092919081815260200182805461040790611bfe565b80156104545780601f1061042957610100808354040283529160200191610454565b820191906000526020600020905b81548152906001019060200180831161043757829003601f168201915b5050505050905090565b600061046982610f30565b506000908152600460205260409020546001600160a01b031690565b6000610490826106ef565b9050806001600160a01b0316836001600160a01b0316036105025760405162461bcd60e51b815260206004820152602160248201527f4552433732313a20617070726f76616c20746f2063757272656e74206f776e656044820152603960f91b60648201526084015b60405180910390fd5b336001600160a01b038216148061051e575061051e813361032c565b6105905760405162461bcd60e51b815260206004820152603e60248201527f4552433732313a20617070726f76652063616c6c6572206973206e6f7420746f60448201527f6b656e206f776e6572206e6f7220617070726f76656420666f7220616c6c000060648201526084016104f9565b61059a8383610f8f565b505050565b6105a93082610485565b50565b6105b63382610ffd565b6105d25760405162461bcd60e51b81526004016104f990611c32565b61059a83838361107b565b61059a83838360405180602001604052806000815250610d71565b600a6020526000908152604090208054600182015460028301546003840154600485018054949593946001600160a01b0393841694929093169261063b90611bfe565b80601f016020809104026020016040519081016040528092919081815260200182805461066790611bfe565b80156106b45780601f10610689576101008083540402835291602001916106b4565b820191906000526020600020905b81548152906001019060200180831161069757829003601f168201915b5050505050905085565b600b60205281600052604060002081815481106106da57600080fd5b90600052602060002001600091509150505481565b6000818152600260205260408120546001600160a01b0316806103c65760405162461bcd60e51b8152602060048201526018602482015277115490cdcc8c4e881a5b9d985b1a59081d1bdad95b88125160421b60448201526064016104f9565b6001600160a01b0381166000908152600c6020908152604080832054600b8352818420805483518186028101860190945280845260609592949293928301828280156107ba57602002820191906000526020600020905b8154815260200190600101908083116107a6575b5050505050905060008267ffffffffffffffff8111156107dc576107dc611a2c565b60405190808252806020026020018201604052801561081557816020015b6108026117b0565b8152602001906001900390816107fa5790505b50905060005b8381101561095957600a600084838151811061083957610839611c80565b6020908102919091018101518252818101929092526040908101600020815160a0810183528154815260018201549381019390935260028101546001600160a01b0390811692840192909252600381015490911660608301526004810180546080840191906108a790611bfe565b80601f01602080910402602001604051908101604052809291908181526020018280546108d390611bfe565b80156109205780601f106108f557610100808354040283529160200191610920565b820191906000526020600020905b81548152906001019060200180831161090357829003601f168201915b50505050508152505082828151811061093b5761093b611c80565b6020026020010181905250808061095190611cac565b91505061081b565b50949350505050565b60006001600160a01b0382166109cc5760405162461bcd60e51b815260206004820152602960248201527f4552433732313a2061646472657373207a65726f206973206e6f7420612076616044820152683634b21037bbb732b960b91b60648201526084016104f9565b506001600160a01b031660009081526003602052604090205490565b6060600060095467ffffffffffffffff811115610a0757610a07611a2c565b604051908082528060200260200182016040528015610a4057816020015b610a2d6117b0565b815260200190600190039081610a255790505b50905060005b600954811015610b7557600a6000610a5f836001611cc5565b81526020808201929092526040908101600020815160a0810183528154815260018201549381019390935260028101546001600160a01b039081169284019290925260038101549091166060830152600481018054608084019190610ac390611bfe565b80601f0160208091040260200160405190810160405280929190818152602001828054610aef90611bfe565b8015610b3c5780601f10610b1157610100808354040283529160200191610b3c565b820191906000526020600020905b815481529060010190602001808311610b1f57829003601f168201915b505050505081525050828281518110610b5757610b57611c80565b60200260200101819052508080610b6d90611cac565b915050610a46565b50919050565b3360009081526008602052604081205460ff16610bda5760405162461bcd60e51b815260206004820152601760248201527f55736572206973206e6f7420617574686f72697365642100000000000000000060448201526064016104f9565b60098054906000610bea83611cac565b9190505550610bfb83600954611217565b610c0760095485611231565b6040805160a08101825260095480825260208083018681526001600160a01b0380891685870181815260608701918252608087018c81526000968752600a90955296909420855181559151600183015594516002820180549187166001600160a01b031992831617905592516003820180549190961693169290921790935591519091906004820190610c9a9082611d2b565b5050506001600160a01b0383166000908152600c60205260408120805491610cc183611cac565b909155505050506001600160a01b03166000908152600b60209081526040822060098054825460018101845592855292909320015554919050565b6060600180546103db90611bfe565b610d163383836112c4565b5050565b6000818152600a6020526040902060030154610d40906001600160a01b031683836105dd565b6000908152600a6020526040902060030180546001600160a01b0319166001600160a01b0392909216919091179055565b610d7b3383610ffd565b610d975760405162461bcd60e51b81526004016104f990611c32565b610da384848484611392565b50505050565b6060610db482610f30565b60008281526006602052604081208054610dcd90611bfe565b80601f0160208091040260200160405190810160405280929190818152602001828054610df990611bfe565b8015610e465780601f10610e1b57610100808354040283529160200191610e46565b820191906000526020600020905b815481529060010190602001808311610e2957829003601f168201915b505050505090506000610e6460408051602081019091526000815290565b90508051600003610e76575092915050565b815115610ea8578082604051602001610e90929190611deb565b60405160208183030381529060405292505050919050565b610eb1846113c5565b949350505050565b6007546001600160a01b03163314610f0c5760405162461bcd60e51b81526020600482015260166024820152754e6f74206f776e6572206f6620636f6e74726163742160501b60448201526064016104f9565b6001600160a01b03166000908152600860205260409020805460ff19166001179055565b6000818152600260205260409020546001600160a01b03166105a95760405162461bcd60e51b8152602060048201526018602482015277115490cdcc8c4e881a5b9d985b1a59081d1bdad95b88125160421b60448201526064016104f9565b600081815260046020526040902080546001600160a01b0319166001600160a01b0384169081179091558190610fc4826106ef565b6001600160a01b03167f8c5be1e5ebec7d5bd14f71427d1e84f3dd0314c0f7b2291e5b200ac8c7c3b92560405160405180910390a45050565b600080611009836106ef565b9050806001600160a01b0316846001600160a01b0316148061105057506001600160a01b0380821660009081526005602090815260408083209388168352929052205460ff165b80610eb15750836001600160a01b03166110698461045e565b6001600160a01b031614949350505050565b826001600160a01b031661108e826106ef565b6001600160a01b0316146110f25760405162461bcd60e51b815260206004820152602560248201527f4552433732313a207472616e736665722066726f6d20696e636f72726563742060448201526437bbb732b960d91b60648201526084016104f9565b6001600160a01b0382166111545760405162461bcd60e51b8152602060048201526024808201527f4552433732313a207472616e7366657220746f20746865207a65726f206164646044820152637265737360e01b60648201526084016104f9565b61115f600082610f8f565b6001600160a01b0383166000908152600360205260408120805460019290611188908490611e1a565b90915550506001600160a01b03821660009081526003602052604081208054600192906111b6908490611cc5565b909155505060008181526002602052604080822080546001600160a01b0319166001600160a01b0386811691821790925591518493918716917fddf252ad1be2c89b69c2b068fc378daa952ba7f163c4a11628f55a4df523b3ef91a4505050565b610d16828260405180602001604052806000815250611439565b6000828152600260205260409020546001600160a01b03166112ac5760405162461bcd60e51b815260206004820152602e60248201527f45524337323155524953746f726167653a2055524920736574206f66206e6f6e60448201526d32bc34b9ba32b73a103a37b5b2b760911b60648201526084016104f9565b600082815260066020526040902061059a8282611d2b565b816001600160a01b0316836001600160a01b0316036113255760405162461bcd60e51b815260206004820152601960248201527f4552433732313a20617070726f766520746f2063616c6c65720000000000000060448201526064016104f9565b6001600160a01b03838116600081815260056020908152604080832094871680845294825291829020805460ff191686151590811790915591519182527f17307eab39ab6107e8899845ad3d59bd9653f200f220920489ca2b5937696c31910160405180910390a3505050565b61139d84848461107b565b6113a98484848461146c565b610da35760405162461bcd60e51b81526004016104f990611e31565b60606113d082610f30565b60006113e760408051602081019091526000815290565b905060008151116114075760405180602001604052806000815250611432565b806114118461156d565b604051602001611422929190611deb565b6040516020818303038152906040525b9392505050565b611443838361166e565b611450600084848461146c565b61059a5760405162461bcd60e51b81526004016104f990611e31565b60006001600160a01b0384163b1561156257604051630a85bd0160e11b81526001600160a01b0385169063150b7a02906114b0903390899088908890600401611e83565b6020604051808303816000875af19250505080156114eb575060408051601f3d908101601f191682019092526114e891810190611ec0565b60015b611548573d808015611519576040519150601f19603f3d011682016040523d82523d6000602084013e61151e565b606091505b5080516000036115405760405162461bcd60e51b81526004016104f990611e31565b805181602001fd5b6001600160e01b031916630a85bd0160e11b149050610eb1565b506001949350505050565b6060816000036115945750506040805180820190915260018152600360fc1b602082015290565b8160005b81156115be57806115a881611cac565b91506115b79050600a83611ef3565b9150611598565b60008167ffffffffffffffff8111156115d9576115d9611a2c565b6040519080825280601f01601f191660200182016040528015611603576020820181803683370190505b5090505b8415610eb157611618600183611e1a565b9150611625600a86611f07565b611630906030611cc5565b60f81b81838151811061164557611645611c80565b60200101906001600160f81b031916908160001a905350611667600a86611ef3565b9450611607565b6001600160a01b0382166116c45760405162461bcd60e51b815260206004820181905260248201527f4552433732313a206d696e7420746f20746865207a65726f206164647265737360448201526064016104f9565b6000818152600260205260409020546001600160a01b0316156117295760405162461bcd60e51b815260206004820152601c60248201527f4552433732313a20746f6b656e20616c7265616479206d696e7465640000000060448201526064016104f9565b6001600160a01b0382166000908152600360205260408120805460019290611752908490611cc5565b909155505060008181526002602052604080822080546001600160a01b0319166001600160a01b03861690811790915590518392907fddf252ad1be2c89b69c2b068fc378daa952ba7f163c4a11628f55a4df523b3ef908290a45050565b6040518060a00160405280600081526020016000815260200160006001600160a01b0316815260200160006001600160a01b03168152602001606081525090565b6001600160e01b0319811681146105a957600080fd5b60006020828403121561181957600080fd5b8135611432816117f1565b60005b8381101561183f578181015183820152602001611827565b83811115610da35750506000910152565b60008151808452611868816020860160208601611824565b601f01601f19169290920160200192915050565b6020815260006114326020830184611850565b6000602082840312156118a157600080fd5b5035919050565b80356001600160a01b03811681146118bf57600080fd5b919050565b600080604083850312156118d757600080fd5b6118e0836118a8565b946020939093013593505050565b60008060006060848603121561190357600080fd5b61190c846118a8565b925061191a602085016118a8565b9150604084013590509250925092565b858152602081018590526001600160a01b0384811660408301528316606082015260a06080820181905260009061196390830184611850565b979650505050505050565b60006020828403121561198057600080fd5b611432826118a8565b60006020808301818452808551808352604092508286019150828160051b87010184880160005b83811015611a1e57888303603f190185528151805184528781015188850152868101516001600160a01b03908116888601526060808301519091169085015260809081015160a091850182905290611a0a81860183611850565b9689019694505050908601906001016119b0565b509098975050505050505050565b634e487b7160e01b600052604160045260246000fd5b600067ffffffffffffffff80841115611a5d57611a5d611a2c565b604051601f8501601f19908116603f01168101908282118183101715611a8557611a85611a2c565b81604052809350858152868686011115611a9e57600080fd5b858560208301376000602087830101525050509392505050565b600080600060608486031215611acd57600080fd5b833567ffffffffffffffff811115611ae457600080fd5b8401601f81018613611af557600080fd5b611b0486823560208401611a42565b93505061191a602085016118a8565b60008060408385031215611b2657600080fd5b611b2f836118a8565b915060208301358015158114611b4457600080fd5b809150509250929050565b60008060008060808587031215611b6557600080fd5b611b6e856118a8565b9350611b7c602086016118a8565b925060408501359150606085013567ffffffffffffffff811115611b9f57600080fd5b8501601f81018713611bb057600080fd5b611bbf87823560208401611a42565b91505092959194509250565b60008060408385031215611bde57600080fd5b611be7836118a8565b9150611bf5602084016118a8565b90509250929050565b600181811c90821680611c1257607f821691505b602082108103610b7557634e487b7160e01b600052602260045260246000fd5b6020808252602e908201527f4552433732313a2063616c6c6572206973206e6f7420746f6b656e206f776e6560408201526d1c881b9bdc88185c1c1c9bdd995960921b606082015260800190565b634e487b7160e01b600052603260045260246000fd5b634e487b7160e01b600052601160045260246000fd5b600060018201611cbe57611cbe611c96565b5060010190565b60008219821115611cd857611cd8611c96565b500190565b601f82111561059a57600081815260208120601f850160051c81016020861015611d045750805b601f850160051c820191505b81811015611d2357828155600101611d10565b505050505050565b815167ffffffffffffffff811115611d4557611d45611a2c565b611d5981611d538454611bfe565b84611cdd565b602080601f831160018114611d8e5760008415611d765750858301515b600019600386901b1c1916600185901b178555611d23565b600085815260208120601f198616915b82811015611dbd57888601518255948401946001909101908401611d9e565b5085821015611ddb5787850151600019600388901b60f8161c191681555b5050505050600190811b01905550565b60008351611dfd818460208801611824565b835190830190611e11818360208801611824565b01949350505050565b600082821015611e2c57611e2c611c96565b500390565b60208082526032908201527f4552433732313a207472616e7366657220746f206e6f6e20455243373231526560408201527131b2b4bb32b91034b6b83632b6b2b73a32b960711b606082015260800190565b6001600160a01b0385811682528416602082015260408101839052608060608201819052600090611eb690830184611850565b9695505050505050565b600060208284031215611ed257600080fd5b8151611432816117f1565b634e487b7160e01b600052601260045260246000fd5b600082611f0257611f02611edd565b500490565b600082611f1657611f16611edd565b50069056fea26469706673582212205ef4c20448bebf6335df044f2d0f6eb8f9a171ad18a266540e1820eb152f19a164736f6c634300080f0033",
  "immutableReferences": {},
  "source": "// SPDX-License-Identifier: GPL-3.0\r\npragma solidity 0.8.15;\r\n\r\nimport \"@openzeppelin/contracts/token/ERC721/extensions/ERC721URIStorage.sol\";\r\nimport \"./Permissions.sol\";\r\n\r\ncontract NFT is ERC721URIStorage, Permissions {\r\n    uint public tokenCount;\r\n    constructor() ERC721(\"Patent NFT\", \"PNFT\"){}\r\n    struct TokenInfo{\r\n        uint tokenId;\r\n        uint userId;\r\n        address initialTokenOwner;\r\n        address currentTokenOwner;\r\n        string tokenURI;\r\n    }\r\n\r\n    mapping(uint => TokenInfo) public _tokenList;\r\n    mapping(address => uint[]) public _ownedTokens;\r\n    mapping(address => uint) public _ownedTokensCount;\r\n\r\n    function mint(string memory _tokenURI, address _owner, uint _userId) external onlyAuthorisedPersonnel returns(uint) {\r\n        tokenCount ++;\r\n        _safeMint(_owner, tokenCount);\r\n        _setTokenURI(tokenCount, _tokenURI);\r\n        _tokenList[tokenCount] = TokenInfo(tokenCount, _userId, _owner, _owner, _tokenURI);\r\n        _ownedTokensCount[_owner]++;\r\n        _ownedTokens[_owner].push(tokenCount);\r\n\r\n        return(tokenCount);\r\n    }\r\n\r\n    function transfer(address _to, uint _tokenId) external {\r\n        safeTransferFrom(_tokenList[_tokenId].currentTokenOwner, _to, _tokenId);\r\n        _tokenList[_tokenId].currentTokenOwner = _to;\r\n    }\r\n\r\n//Should be called by the token owner\r\n    function giveApprovalToContract( uint _tokenId) external {\r\n        approve(address(this), _tokenId);\r\n        // approve(_authority, _tokenId);\r\n    }\r\n\r\n    function listTokens() public view returns (TokenInfo[] memory ){\r\n        TokenInfo[] memory allTokens = new TokenInfo[](tokenCount);\r\n        for(uint i=0; i<tokenCount; i++){\r\n            allTokens[i] = _tokenList[i+1];\r\n        }\r\n        return allTokens;\r\n    }\r\n\r\n    function listTokensOf(address _address) public view returns(TokenInfo[] memory){\r\n        uint ownedTokensCount = _ownedTokensCount[_address];\r\n        uint[] memory ownedTokens = _ownedTokens[_address];\r\n        TokenInfo[] memory ownTokens = new TokenInfo[](ownedTokensCount);\r\n        for(uint i=0;i<ownedTokensCount;i++){\r\n            ownTokens[i] = _tokenList[ownedTokens[i]];\r\n        } \r\n        return ownTokens;\r\n    }\r\n\r\n\r\n}",
  "sourcePath": "D:\\Projects\\Patent workflow\\patent-workflow-blockchain\\Source code\\Ethereum\\contracts\\NFT.sol",
  "compiler": {
    "name": "solc",
    "version": "0.8.15+commit.e14f2714.Emscripten.clang"
  },
  "schemaVersion": "3.4.7",
  "updatedAt": "2022-08-05T08:49:32.320Z",
  "networkType": "ethereum",
  "devdoc": {
    "kind": "dev",
    "methods": {
      "approve(address,uint256)": {
        "details": "See {IERC721-approve}."
      },
      "balanceOf(address)": {
        "details": "See {IERC721-balanceOf}."
      },
      "getApproved(uint256)": {
        "details": "See {IERC721-getApproved}."
      },
      "isApprovedForAll(address,address)": {
        "details": "See {IERC721-isApprovedForAll}."
      },
      "name()": {
        "details": "See {IERC721Metadata-name}."
      },
      "ownerOf(uint256)": {
        "details": "See {IERC721-ownerOf}."
      },
      "safeTransferFrom(address,address,uint256)": {
        "details": "See {IERC721-safeTransferFrom}."
      },
      "safeTransferFrom(address,address,uint256,bytes)": {
        "details": "See {IERC721-safeTransferFrom}."
      },
      "setApprovalForAll(address,bool)": {
        "details": "See {IERC721-setApprovalForAll}."
      },
      "supportsInterface(bytes4)": {
        "details": "See {IERC165-supportsInterface}."
      },
      "symbol()": {
        "details": "See {IERC721Metadata-symbol}."
      },
      "tokenURI(uint256)": {
        "details": "See {IERC721Metadata-tokenURI}."
      },
      "transferFrom(address,address,uint256)": {
        "details": "See {IERC721-transferFrom}."
      }
    },
    "version": 1
  },
  "userdoc": {
    "kind": "user",
    "methods": {},
    "version": 1
  }
}