{
  "contractName": "Permissions",
  "abi": [
    {
      "inputs": [],
      "stateMutability": "nonpayable",
      "type": "constructor"
    },
    {
      "inputs": [
        {
          "internalType": "address",
          "name": "_user",
          "type": "address"
        }
      ],
      "name": "authoriseUser",
      "outputs": [],
      "stateMutability": "nonpayable",
      "type": "function"
    }
  ],
  "bytecode": "0x608060405234801561001057600080fd5b50600080546001600160a01b0319163317905561011f806100326000396000f3fe6080604052348015600f57600080fd5b506004361060285760003560e01c8063de3bea0d14602d575b600080fd5b603c603836600460bb565b603e565b005b6000546001600160a01b0316331460945760405162461bcd60e51b81526020600482015260166024820152754e6f74206f776e6572206f6620636f6e74726163742160501b604482015260640160405180910390fd5b6001600160a01b03166000908152600160208190526040909120805460ff19169091179055565b60006020828403121560cc57600080fd5b81356001600160a01b038116811460e257600080fd5b939250505056fea2646970667358221220dfd6d89d1600e933b0e790b43c2af80eb0917fd10930a22554a3184d4fa7b21f64736f6c634300080f0033",
  "immutableReferences": {},
  "source": "// SPDX-License-Identifier: GPL-3.0\r\npragma solidity 0.8.15;\r\n\r\ncontract Permissions {\r\n   address owner;\r\n   constructor() {\r\n      owner = msg.sender;\r\n   }\r\n   mapping (address=>bool) isAuthorised;\r\n   \r\n   modifier onlyOwner {\r\n      require(msg.sender == owner, \"Not owner of contract!\");\r\n      _;\r\n   }\r\n\r\n   modifier onlyAuthorisedPersonnel {\r\n      require(isAuthorised[msg.sender], \"User is not authorised!\");\r\n      _;\r\n   }\r\n\r\n   function authoriseUser(address _user) external onlyOwner {\r\n      isAuthorised[_user] = true;\r\n   }\r\n\r\n   modifier costs(uint price) {\r\n      if (msg.value >= price) {\r\n         _;\r\n      }\r\n   }\r\n}",
  "sourcePath": "D:\\Projects\\Patent workflow\\patent-workflow-blockchain\\Source code\\Ethereum\\contracts\\Permissions.sol",
  "compiler": {
    "name": "solc",
    "version": "0.8.15+commit.e14f2714.Emscripten.clang"
  },
  "schemaVersion": "3.4.7",
  "updatedAt": "2022-08-05T08:49:26.824Z",
  "devdoc": {
    "kind": "dev",
    "methods": {},
    "version": 1
  },
  "userdoc": {
    "kind": "user",
    "methods": {},
    "version": 1
  }
}