{
  "contractName": "Permissions",
  "abi": [
    {
      "inputs": [],
      "stateMutability": "nonpayable",
      "type": "constructor"
    },
    {
      "inputs": [
        {
          "internalType": "address",
          "name": "authorityAddress",
          "type": "address"
        }
      ],
      "name": "setAuthority",
      "outputs": [],
      "stateMutability": "nonpayable",
      "type": "function"
    }
  ],
  "bytecode": "0x608060405234801561001057600080fd5b50600080546001600160a01b03199081163390811783558252600260205260408220805460ff19166001908117909155915482549091166001600160a01b039190911617905561011a806100656000396000f3fe6080604052348015600f57600080fd5b506004361060285760003560e01c80637a9e5e4b14602d575b600080fd5b603c603836600460b6565b603e565b005b6000546001600160a01b0316331460945760405162461bcd60e51b81526020600482015260166024820152754e6f74206f776e6572206f6620636f6e74726163742160501b604482015260640160405180910390fd5b600180546001600160a01b0319166001600160a01b0392909216919091179055565b60006020828403121560c757600080fd5b81356001600160a01b038116811460dd57600080fd5b939250505056fea26469706673582212208af937dc5c71d224539158c7ee767485b557387639abf13a51079b05c81964bf64736f6c63430008110033",
  "immutableReferences": {},
  "source": "// SPDX-License-Identifier: GPL-3.0\r\npragma solidity 0.8.17;\r\n\r\ncontract Permissions {\r\n    address owner;\r\n    address payable authority;\r\n\r\n    constructor() {\r\n        owner = msg.sender;\r\n        isAuthorised[owner] = true;\r\n        authority = payable(owner);\r\n    }\r\n\r\n    mapping(address => bool) isAuthorised;\r\n\r\n    modifier onlyOwner() {\r\n        require(msg.sender == owner, \"Not owner of contract!\");\r\n        _;\r\n    }\r\n\r\n    modifier onlyAuthority() {\r\n        require(authority == msg.sender, \"User is not authority!\");\r\n        _;\r\n    }\r\n\r\n    function setAuthority(address authorityAddress) external onlyOwner {\r\n        authority = payable(authorityAddress);\r\n    }\r\n\r\n    modifier costs(uint256 price) {\r\n        if (msg.value >= price) {\r\n            _;\r\n        }\r\n    }\r\n}",
  "sourcePath": "D:\\Projects\\Patent_workflow\\patent-workflow-blockchain\\SourceCode\\Ethereum\\contracts\\Permissions.sol",
  "compiler": {
    "name": "solc",
    "version": "0.8.17+commit.8df45f5f.Emscripten.clang"
  },
  "schemaVersion": "3.4.7",
  "updatedAt": "2022-10-18T11:06:59.137Z",
  "devdoc": {
    "kind": "dev",
    "methods": {},
    "version": 1
  },
  "userdoc": {
    "kind": "user",
    "methods": {},
    "version": 1
  }
}